{
  "contractName": "PhotoNFTTradable",
  "abi": [
    {
      "inputs": [
        {
          "internalType": "contract PhotoNFTData",
          "name": "_photoNFTData",
          "type": "address"
        }
      ],
      "stateMutability": "nonpayable",
      "type": "constructor"
    },
    {
      "anonymous": false,
      "inputs": [
        {
          "indexed": false,
          "internalType": "address",
          "name": "ad",
          "type": "address"
        },
        {
          "indexed": false,
          "internalType": "bool",
          "name": "status",
          "type": "bool"
        }
      ],
      "name": "TradePremiumStatusChange",
      "type": "event"
    },
    {
      "anonymous": false,
      "inputs": [
        {
          "indexed": false,
          "internalType": "address",
          "name": "ad",
          "type": "address"
        },
        {
          "indexed": false,
          "internalType": "bytes32",
          "name": "status",
          "type": "bytes32"
        }
      ],
      "name": "TradeStatusChange",
      "type": "event"
    },
    {
      "inputs": [],
      "name": "photoNFTData",
      "outputs": [
        {
          "internalType": "contract PhotoNFTData",
          "name": "",
          "type": "address"
        }
      ],
      "stateMutability": "view",
      "type": "function"
    },
    {
      "inputs": [
        {
          "internalType": "address",
          "name": "",
          "type": "address"
        }
      ],
      "name": "trades",
      "outputs": [
        {
          "internalType": "address",
          "name": "seller",
          "type": "address"
        },
        {
          "internalType": "uint256",
          "name": "photoId",
          "type": "uint256"
        },
        {
          "internalType": "uint256",
          "name": "photoPrice",
          "type": "uint256"
        },
        {
          "internalType": "bytes32",
          "name": "status",
          "type": "bytes32"
        },
        {
          "internalType": "bool",
          "name": "premiumStatus",
          "type": "bool"
        }
      ],
      "stateMutability": "view",
      "type": "function"
    },
    {
      "inputs": [
        {
          "internalType": "contract PhotoNFT",
          "name": "photoNFT",
          "type": "address"
        },
        {
          "internalType": "uint256",
          "name": "_photoId",
          "type": "uint256"
        },
        {
          "internalType": "uint256",
          "name": "_photoPrice",
          "type": "uint256"
        }
      ],
      "name": "openTradeWhenCreateNewPhotoNFT",
      "outputs": [],
      "stateMutability": "nonpayable",
      "type": "function"
    },
    {
      "inputs": [
        {
          "internalType": "contract PhotoNFT",
          "name": "photoNFT",
          "type": "address"
        },
        {
          "internalType": "uint256",
          "name": "_photoId",
          "type": "uint256"
        }
      ],
      "name": "openTrade",
      "outputs": [],
      "stateMutability": "nonpayable",
      "type": "function"
    },
    {
      "inputs": [
        {
          "internalType": "contract PhotoNFT",
          "name": "photoNFT",
          "type": "address"
        },
        {
          "internalType": "uint256",
          "name": "_photoId",
          "type": "uint256"
        }
      ],
      "name": "cancelTrade",
      "outputs": [],
      "stateMutability": "nonpayable",
      "type": "function"
    },
    {
      "inputs": [
        {
          "internalType": "contract PhotoNFT",
          "name": "photoNFT",
          "type": "address"
        },
        {
          "internalType": "uint256",
          "name": "_photoId",
          "type": "uint256"
        },
        {
          "internalType": "bool",
          "name": "_newState",
          "type": "bool"
        }
      ],
      "name": "updatePremiumStatus",
      "outputs": [],
      "stateMutability": "nonpayable",
      "type": "function"
    },
    {
      "inputs": [
        {
          "internalType": "contract PhotoNFT",
          "name": "_photoNFT",
          "type": "address"
        },
        {
          "internalType": "uint256",
          "name": "_photoId",
          "type": "uint256"
        },
        {
          "internalType": "address",
          "name": "_buyer",
          "type": "address"
        }
      ],
      "name": "transferOwnershipOfPhotoNFT",
      "outputs": [],
      "stateMutability": "nonpayable",
      "type": "function"
    },
    {
      "inputs": [
        {
          "internalType": "contract PhotoNFT",
          "name": "photoNFT",
          "type": "address"
        }
      ],
      "name": "getTrade",
      "outputs": [
        {
          "components": [
            {
              "internalType": "address",
              "name": "seller",
              "type": "address"
            },
            {
              "internalType": "uint256",
              "name": "photoId",
              "type": "uint256"
            },
            {
              "internalType": "uint256",
              "name": "photoPrice",
              "type": "uint256"
            },
            {
              "internalType": "bytes32",
              "name": "status",
              "type": "bytes32"
            },
            {
              "internalType": "bool",
              "name": "premiumStatus",
              "type": "bool"
            }
          ],
          "internalType": "struct PhotoNFTTradable.Trade",
          "name": "trade_",
          "type": "tuple"
        }
      ],
      "stateMutability": "view",
      "type": "function"
    }
  ],
  "bytecode": "0x60806040523480156200001157600080fd5b506040516200187438038062001874833981810160405281019062000037919062000104565b806000806101000a81548173ffffffffffffffffffffffffffffffffffffffff021916908373ffffffffffffffffffffffffffffffffffffffff16021790555060006002819055505062000136565b600080fd5b600073ffffffffffffffffffffffffffffffffffffffff82169050919050565b6000620000b8826200008b565b9050919050565b6000620000cc82620000ab565b9050919050565b620000de81620000bf565b8114620000ea57600080fd5b50565b600081519050620000fe81620000d3565b92915050565b6000602082840312156200011d576200011c62000086565b5b60006200012d84828501620000ed565b91505092915050565b61172e80620001466000396000f3fe608060405234801561001057600080fd5b50600436106100885760003560e01c80638d6b52f31161005b5780638d6b52f3146100fd578063a9f752e514610119578063ab7a6c3e1461014d578063ec0395141461017d57610088565b8063493c21761461008d57806349b1d3e7146100a9578063759c4bf3146100c557806380a279c4146100e1575b600080fd5b6100a760048036038101906100a29190610ebb565b61019b565b005b6100c360048036038101906100be9190610f0e565b6102f9565b005b6100df60048036038101906100da9190610f61565b6104e5565b005b6100fb60048036038101906100f69190610f61565b610762565b005b61011760048036038101906101129190610fd9565b6109bb565b005b610133600480360381019061012e919061102c565b610b99565b60405161014495949392919061109f565b60405180910390f35b610167600480360381019061016291906110f2565b610bfc565b60405161017491906111c3565b60405180910390f35b610185610cea565b604051610192919061123d565b60405180910390f35b600083905060006101ab85610bfc565b90507f4f70656e00000000000000000000000000000000000000000000000000000000816060015114610213576040517f08c379a000000000000000000000000000000000000000000000000000000000815260040161020a906112b5565b60405180910390fd5b61021e858585610d0e565b8173ffffffffffffffffffffffffffffffffffffffff166323b872dd308584602001516040518463ffffffff1660e01b815260040161025f939291906112d5565b600060405180830381600087803b15801561027957600080fd5b505af115801561028d573d6000803e3d6000fd5b505050507f43616e63656c6c656400000000000000000000000000000000000000000000008160600181815250507fee0bd10dbd5c2151f43ed2fa6af0584fbad842aa901d657f39fffd140822ae70856040516102ea9190611332565b60405180910390a15050505050565b8273ffffffffffffffffffffffffffffffffffffffff166323b872dd3330856040518463ffffffff1660e01b8152600401610336939291906112d5565b600060405180830381600087803b15801561035057600080fd5b505af1158015610364573d6000803e3d6000fd5b5050505060016002600082825461037b9190611388565b925050819055506040518060a001604052803373ffffffffffffffffffffffffffffffffffffffff1681526020018381526020018281526020017f4f70656e00000000000000000000000000000000000000000000000000000000815260200160001515815250600160008573ffffffffffffffffffffffffffffffffffffffff1673ffffffffffffffffffffffffffffffffffffffff16815260200190815260200160002060008201518160000160006101000a81548173ffffffffffffffffffffffffffffffffffffffff021916908373ffffffffffffffffffffffffffffffffffffffff16021790555060208201518160010155604082015181600201556060820151816003015560808201518160040160006101000a81548160ff0219169083151502179055509050507fee0bd10dbd5c2151f43ed2fa6af0584fbad842aa901d657f39fffd140822ae70836040516104d89190611404565b60405180910390a1505050565b6000600160008473ffffffffffffffffffffffffffffffffffffffff1673ffffffffffffffffffffffffffffffffffffffff16815260200190815260200160002090508060000160009054906101000a900473ffffffffffffffffffffffffffffffffffffffff1673ffffffffffffffffffffffffffffffffffffffff163373ffffffffffffffffffffffffffffffffffffffff16146105ba576040517f08c379a00000000000000000000000000000000000000000000000000000000081526004016105b19061149d565b60405180910390fd5b60008054906101000a900473ffffffffffffffffffffffffffffffffffffffff1673ffffffffffffffffffffffffffffffffffffffff16639bab7f4a846040518263ffffffff1660e01b8152600401610613919061152a565b602060405180830381600087803b15801561062d57600080fd5b505af1158015610641573d6000803e3d6000fd5b505050506040513d601f19601f82011682018060405250810190610665919061156d565b508273ffffffffffffffffffffffffffffffffffffffff166323b872dd308360000160009054906101000a900473ffffffffffffffffffffffffffffffffffffffff1684600101546040518463ffffffff1660e01b81526004016106cb939291906112d5565b600060405180830381600087803b1580156106e557600080fd5b505af11580156106f9573d6000803e3d6000fd5b505050507f43616e63656c6c6564000000000000000000000000000000000000000000000081600301819055507fee0bd10dbd5c2151f43ed2fa6af0584fbad842aa901d657f39fffd140822ae70836040516107559190611332565b60405180910390a1505050565b6000600160008473ffffffffffffffffffffffffffffffffffffffff1673ffffffffffffffffffffffffffffffffffffffff16815260200190815260200160002090508060000160009054906101000a900473ffffffffffffffffffffffffffffffffffffffff1673ffffffffffffffffffffffffffffffffffffffff163373ffffffffffffffffffffffffffffffffffffffff1614610837576040517f08c379a000000000000000000000000000000000000000000000000000000000815260040161082e9061160c565b60405180910390fd5b60008054906101000a900473ffffffffffffffffffffffffffffffffffffffff1673ffffffffffffffffffffffffffffffffffffffff16639bab7f4a846040518263ffffffff1660e01b81526004016108909190611678565b602060405180830381600087803b1580156108aa57600080fd5b505af11580156108be573d6000803e3d6000fd5b505050506040513d601f19601f820116820180604052508101906108e2919061156d565b508273ffffffffffffffffffffffffffffffffffffffff166323b872dd333084600101546040518463ffffffff1660e01b8152600401610924939291906112d5565b600060405180830381600087803b15801561093e57600080fd5b505af1158015610952573d6000803e3d6000fd5b505050507f4f70656e0000000000000000000000000000000000000000000000000000000081600301819055507fee0bd10dbd5c2151f43ed2fa6af0584fbad842aa901d657f39fffd140822ae70836040516109ae9190611404565b60405180910390a1505050565b6000600160008573ffffffffffffffffffffffffffffffffffffffff1673ffffffffffffffffffffffffffffffffffffffff16815260200190815260200160002090508060000160009054906101000a900473ffffffffffffffffffffffffffffffffffffffff1673ffffffffffffffffffffffffffffffffffffffff163373ffffffffffffffffffffffffffffffffffffffff1614610a90576040517f08c379a0000000000000000000000000000000000000000000000000000000008152600401610a879061160c565b60405180910390fd5b60008054906101000a900473ffffffffffffffffffffffffffffffffffffffff1673ffffffffffffffffffffffffffffffffffffffff1663c4d55c6885846040518363ffffffff1660e01b8152600401610aeb9291906116a6565b602060405180830381600087803b158015610b0557600080fd5b505af1158015610b19573d6000803e3d6000fd5b505050506040513d601f19601f82011682018060405250810190610b3d919061156d565b50818160040160006101000a81548160ff0219169083151502179055507ff914bff822f938e06c0aaceb42bb4ca99085426a1e493b755e716662d12163ee8483604051610b8b9291906116cf565b60405180910390a150505050565b60016020528060005260406000206000915090508060000160009054906101000a900473ffffffffffffffffffffffffffffffffffffffff16908060010154908060020154908060030154908060040160009054906101000a900460ff16905085565b610c04610d9a565b6000600160008473ffffffffffffffffffffffffffffffffffffffff1673ffffffffffffffffffffffffffffffffffffffff1681526020019081526020016000206040518060a00160405290816000820160009054906101000a900473ffffffffffffffffffffffffffffffffffffffff1673ffffffffffffffffffffffffffffffffffffffff1673ffffffffffffffffffffffffffffffffffffffff1681526020016001820154815260200160028201548152602001600382015481526020016004820160009054906101000a900460ff161515151581525050905080915050919050565b60008054906101000a900473ffffffffffffffffffffffffffffffffffffffff1681565b6000600160008573ffffffffffffffffffffffffffffffffffffffff1673ffffffffffffffffffffffffffffffffffffffff1681526020019081526020016000209050818160000160006101000a81548173ffffffffffffffffffffffffffffffffffffffff021916908373ffffffffffffffffffffffffffffffffffffffff16021790555050505050565b6040518060a00160405280600073ffffffffffffffffffffffffffffffffffffffff1681526020016000815260200160008152602001600080191681526020016000151581525090565b600080fd5b600073ffffffffffffffffffffffffffffffffffffffff82169050919050565b6000610e1482610de9565b9050919050565b6000610e2682610e09565b9050919050565b610e3681610e1b565b8114610e4157600080fd5b50565b600081359050610e5381610e2d565b92915050565b6000819050919050565b610e6c81610e59565b8114610e7757600080fd5b50565b600081359050610e8981610e63565b92915050565b610e9881610e09565b8114610ea357600080fd5b50565b600081359050610eb581610e8f565b92915050565b600080600060608486031215610ed457610ed3610de4565b5b6000610ee286828701610e44565b9350506020610ef386828701610e7a565b9250506040610f0486828701610ea6565b9150509250925092565b600080600060608486031215610f2757610f26610de4565b5b6000610f3586828701610e44565b9350506020610f4686828701610e7a565b9250506040610f5786828701610e7a565b9150509250925092565b60008060408385031215610f7857610f77610de4565b5b6000610f8685828601610e44565b9250506020610f9785828601610e7a565b9150509250929050565b60008115159050919050565b610fb681610fa1565b8114610fc157600080fd5b50565b600081359050610fd381610fad565b92915050565b600080600060608486031215610ff257610ff1610de4565b5b600061100086828701610e44565b935050602061101186828701610e7a565b925050604061102286828701610fc4565b9150509250925092565b60006020828403121561104257611041610de4565b5b600061105084828501610ea6565b91505092915050565b61106281610e09565b82525050565b61107181610e59565b82525050565b6000819050919050565b61108a81611077565b82525050565b61109981610fa1565b82525050565b600060a0820190506110b46000830188611059565b6110c16020830187611068565b6110ce6040830186611068565b6110db6060830185611081565b6110e86080830184611090565b9695505050505050565b60006020828403121561110857611107610de4565b5b600061111684828501610e44565b91505092915050565b61112881610e09565b82525050565b61113781610e59565b82525050565b61114681611077565b82525050565b61115581610fa1565b82525050565b60a082016000820151611171600085018261111f565b506020820151611184602085018261112e565b506040820151611197604085018261112e565b5060608201516111aa606085018261113d565b5060808201516111bd608085018261114c565b50505050565b600060a0820190506111d8600083018461115b565b92915050565b6000819050919050565b60006112036111fe6111f984610de9565b6111de565b610de9565b9050919050565b6000611215826111e8565b9050919050565b60006112278261120a565b9050919050565b6112378161121c565b82525050565b6000602082019050611252600083018461122e565b92915050565b600082825260208201905092915050565b7f5472616465206973206e6f74204f70656e2e0000000000000000000000000000600082015250565b600061129f601283611258565b91506112aa82611269565b602082019050919050565b600060208201905081810360008301526112ce81611292565b9050919050565b60006060820190506112ea6000830186611059565b6112f76020830185611059565b6113046040830184611068565b949350505050565b7f43616e63656c6c65640000000000000000000000000000000000000000000000815250565b60006040820190506113476000830184611059565b6113536020830161130c565b92915050565b7f4e487b7100000000000000000000000000000000000000000000000000000000600052601160045260246000fd5b600061139382610e59565b915061139e83610e59565b9250827fffffffffffffffffffffffffffffffffffffffffffffffffffffffffffffffff038211156113d3576113d2611359565b5b828201905092915050565b7f4f70656e00000000000000000000000000000000000000000000000000000000815250565b60006040820190506114196000830184611059565b611425602083016113de565b92915050565b7f54726164652063616e2062652063616e63656c6c6564206f6e6c79206279207360008201527f656c6c65722e0000000000000000000000000000000000000000000000000000602082015250565b6000611487602683611258565b91506114928261142b565b604082019050919050565b600060208201905081810360008301526114b68161147a565b9050919050565b60006114c88261120a565b9050919050565b6114d8816114bd565b82525050565b7f43616e63656c6c65640000000000000000000000000000000000000000000000600082015250565b6000611514600983611258565b915061151f826114de565b602082019050919050565b600060408201905061153f60008301846114cf565b818103602083015261155081611507565b905092915050565b60008151905061156781610fad565b92915050565b60006020828403121561158357611582610de4565b5b600061159184828501611558565b91505092915050565b7f54726164652063616e206265206f70656e206f6e6c792062792073656c6c657260008201527f2e00000000000000000000000000000000000000000000000000000000000000602082015250565b60006115f6602183611258565b91506116018261159a565b604082019050919050565b60006020820190508181036000830152611625816115e9565b9050919050565b7f4f70656e00000000000000000000000000000000000000000000000000000000600082015250565b6000611662600483611258565b915061166d8261162c565b602082019050919050565b600060408201905061168d60008301846114cf565b818103602083015261169e81611655565b905092915050565b60006040820190506116bb60008301856114cf565b6116c86020830184611090565b9392505050565b60006040820190506116e46000830185611059565b6116f16020830184611090565b939250505056fea2646970667358221220a41d6b0dd5e7f0e54ee44cbb3b98c7abdcdfcc6bcc5555513d9c5f5f6604fe4464736f6c63430008090033",
  "immutableReferences": {},
  "source": "// SPDX-License-Identifier: MIT\r\npragma solidity ^0.8.0;\r\npragma experimental ABIEncoderV2;\r\n\r\nimport { PhotoNFT } from \"./PhotoNFT.sol\";\r\nimport { PhotoNFTData } from \"./PhotoNFTData.sol\";\r\n\r\n\r\n/**\r\n * @title - PhotoNFTTradable contract\r\n * @notice - This contract has role that put on sale of photoNFTs\r\n */\r\ncontract PhotoNFTTradable {\r\n    event TradeStatusChange(address ad, bytes32 status);\r\n    event TradePremiumStatusChange(address ad, bool status);\r\n\r\n    //cjh \r\n    // PhotoNFT public photoNFT;\r\n    PhotoNFTData public photoNFTData;\r\n\r\n    struct Trade {\r\n        address seller;\r\n        uint256 photoId;  // PhotoNFT's token ID\r\n        uint256 photoPrice;\r\n        bytes32 status;   // Open, Executed, Cancelled\r\n        bool    premiumStatus; // false : not , true: premium\r\n    }\r\n    mapping(address => Trade) public trades;  // [Key]: PhotoNFT's token ID\r\n\r\n    uint256 tradeCounter;\r\n\r\n    constructor(PhotoNFTData _photoNFTData) public {\r\n        photoNFTData = _photoNFTData;\r\n        tradeCounter = 0;\r\n    }\r\n\r\n    /**\r\n     * @notice - This method is only executed when a seller create a new PhotoNFT\r\n     * @dev Opens a new trade. Puts _photoId in escrow.\r\n     * @param _photoId The id for the photoId to trade.\r\n     * @param _photoPrice The amount of currency for which to trade the photoId.\r\n     */\r\n    function openTradeWhenCreateNewPhotoNFT(PhotoNFT photoNFT, uint256 _photoId, uint256 _photoPrice) public {\r\n        photoNFT.transferFrom(msg.sender, address(this), _photoId);\r\n\r\n        tradeCounter += 1;    /// [Note]: New. Trade count is started from \"1\". This is to align photoId\r\n\r\n        //cjh\r\n        // trades[tradeCounter] = Trade({\r\n        trades[address(photoNFT)] = Trade({\r\n            seller: msg.sender,\r\n            photoId: _photoId,\r\n            photoPrice: _photoPrice,\r\n            status: \"Open\", \r\n            premiumStatus : false\r\n        });\r\n        //tradeCounter += 1;  /// [Note]: Original\r\n        emit TradeStatusChange(address(photoNFT), \"Open\");\r\n    }\r\n\r\n    /**\r\n     * @dev Opens a trade by the seller.\r\n     */\r\n    function openTrade(PhotoNFT photoNFT, uint256 _photoId) public {\r\n        \r\n        Trade storage trade = trades[address(photoNFT)];\r\n        require(\r\n            msg.sender == trade.seller,\r\n            \"Trade can be open only by seller.\"\r\n        );\r\n\r\n        photoNFTData.updateStatus(photoNFT, \"Open\");\r\n        photoNFT.transferFrom(msg.sender, address(this), trade.photoId);\r\n        // trades[photoNFT].status = \"Open\";\r\n        //cjh \r\n        trade.status = \"Open\";\r\n        emit TradeStatusChange(address(photoNFT), \"Open\");\r\n    }\r\n\r\n    /**\r\n     * @dev Cancels a trade by the seller.\r\n     */\r\n    function cancelTrade(PhotoNFT photoNFT, uint256 _photoId) public {\r\n        Trade storage trade = trades[address(photoNFT)];\r\n\r\n        require(\r\n            msg.sender == trade.seller,\r\n            \"Trade can be cancelled only by seller.\"\r\n        );\r\n        // require(trade.status == \"Open\", \"Trade is not Open.\");\r\n\r\n        photoNFTData.updateStatus(photoNFT, \"Cancelled\");\r\n        photoNFT.transferFrom(address(this), trade.seller, trade.photoId);\r\n        trade.status = \"Cancelled\";\r\n        emit TradeStatusChange(address(photoNFT), \"Cancelled\");\r\n    }\r\n\r\n    /**\r\n     * @dev Opens a trade by the seller.\r\n     */\r\n    function updatePremiumStatus(PhotoNFT photoNFT, uint256 _photoId, bool _newState) public {\r\n        Trade storage trade = trades[address(photoNFT)];\r\n        require(\r\n            msg.sender == trade.seller,\r\n            \"Trade can be open only by seller.\"\r\n        );\r\n        photoNFTData.updatePremiumStatus(photoNFT, _newState);     \r\n         \r\n        trade.premiumStatus = _newState;\r\n        emit TradePremiumStatusChange(address(photoNFT), _newState);\r\n    }\r\n    \r\n    /**\r\n     * @dev Executes a trade. Must have approved this contract to transfer the amount of currency specified to the seller. Transfers ownership of the photoId to the filler.\r\n     */\r\n    function transferOwnershipOfPhotoNFT(PhotoNFT _photoNFT, uint256 _photoId, address _buyer) public {\r\n        PhotoNFT photoNFT = _photoNFT;\r\n\r\n        Trade memory trade = getTrade(_photoNFT);\r\n        require(trade.status == \"Open\", \"Trade is not Open.\");\r\n\r\n        _updateSeller(_photoNFT, _photoId, _buyer);\r\n\r\n        //cjh \r\n\r\n        photoNFT.transferFrom(address(this), _buyer, trade.photoId);\r\n        trade.status = \"Cancelled\";\r\n        emit TradeStatusChange(address(_photoNFT), \"Cancelled\");\r\n    }\r\n\r\n    function _updateSeller(PhotoNFT photoNFT, uint256 _photoId, address _newSeller) internal {\r\n        Trade storage trade = trades[address(photoNFT)];\r\n        trade.seller = _newSeller;\r\n    }\r\n\r\n\r\n    /**\r\n     * @dev - Returns the details for a trade.\r\n     */\r\n    function getTrade(PhotoNFT photoNFT) public view returns (Trade memory trade_) {\r\n        Trade memory trade = trades[address(photoNFT)];\r\n        return trade;\r\n        //return (trade.seller, trade.photoId, trade.photoPrice, trade.status);\r\n    }\r\n}\r\n",
  "sourcePath": "C:\\testing\\NFT-marketplace\\contracts\\PhotoNFTTradable.sol",
  "compiler": {
    "name": "solc",
    "version": "0.8.9+commit.e5eed63a.Emscripten.clang"
  },
  "schemaVersion": "3.4.3",
  "updatedAt": "2021-10-16T13:16:47.794Z",
  "devdoc": {
    "kind": "dev",
    "methods": {
      "cancelTrade(address,uint256)": {
        "details": "Cancels a trade by the seller."
      },
      "getTrade(address)": {
        "details": "- Returns the details for a trade."
      },
      "openTrade(address,uint256)": {
        "details": "Opens a trade by the seller."
      },
      "openTradeWhenCreateNewPhotoNFT(address,uint256,uint256)": {
        "details": "Opens a new trade. Puts _photoId in escrow.",
        "params": {
          "_photoId": "The id for the photoId to trade.",
          "_photoPrice": "The amount of currency for which to trade the photoId."
        }
      },
      "transferOwnershipOfPhotoNFT(address,uint256,address)": {
        "details": "Executes a trade. Must have approved this contract to transfer the amount of currency specified to the seller. Transfers ownership of the photoId to the filler."
      },
      "updatePremiumStatus(address,uint256,bool)": {
        "details": "Opens a trade by the seller."
      }
    },
    "title": "- PhotoNFTTradable contract",
    "version": 1
  },
  "userdoc": {
    "kind": "user",
    "methods": {
      "openTradeWhenCreateNewPhotoNFT(address,uint256,uint256)": {
        "notice": "- This method is only executed when a seller create a new PhotoNFT"
      }
    },
    "notice": "- This contract has role that put on sale of photoNFTs",
    "version": 1
  }
}