{
  "contractName": "PhotoNFTMarketplace",
  "abi": [
    {
      "inputs": [
        {
          "internalType": "contract PhotoNFTData",
          "name": "_photoNFTData",
          "type": "address"
        }
      ],
      "stateMutability": "nonpayable",
      "type": "constructor"
    },
    {
      "anonymous": false,
      "inputs": [
        {
          "indexed": false,
          "internalType": "contract PhotoNFT",
          "name": "photoNFT",
          "type": "address"
        },
        {
          "indexed": false,
          "internalType": "uint256",
          "name": "photoId",
          "type": "uint256"
        },
        {
          "indexed": false,
          "internalType": "address",
          "name": "ownerBeforeOwnershipTransferred",
          "type": "address"
        },
        {
          "indexed": false,
          "internalType": "address",
          "name": "ownerAfterOwnershipTransferred",
          "type": "address"
        }
      ],
      "name": "PhotoNFTOwnershipChanged",
      "type": "event"
    },
    {
      "anonymous": false,
      "inputs": [
        {
          "indexed": false,
          "internalType": "address",
          "name": "ad",
          "type": "address"
        },
        {
          "indexed": false,
          "internalType": "bool",
          "name": "status",
          "type": "bool"
        }
      ],
      "name": "TradePremiumStatusChange",
      "type": "event"
    },
    {
      "anonymous": false,
      "inputs": [
        {
          "indexed": false,
          "internalType": "address",
          "name": "ad",
          "type": "address"
        },
        {
          "indexed": false,
          "internalType": "bytes32",
          "name": "status",
          "type": "bytes32"
        }
      ],
      "name": "TradeStatusChange",
      "type": "event"
    },
    {
      "inputs": [],
      "name": "PHOTO_NFT_MARKETPLACE",
      "outputs": [
        {
          "internalType": "address",
          "name": "",
          "type": "address"
        }
      ],
      "stateMutability": "view",
      "type": "function",
      "constant": true
    },
    {
      "inputs": [
        {
          "internalType": "contract PhotoNFT",
          "name": "photoNFT",
          "type": "address"
        },
        {
          "internalType": "uint256",
          "name": "_photoId",
          "type": "uint256"
        }
      ],
      "name": "cancelTrade",
      "outputs": [],
      "stateMutability": "nonpayable",
      "type": "function"
    },
    {
      "inputs": [
        {
          "internalType": "contract PhotoNFT",
          "name": "photoNFT",
          "type": "address"
        }
      ],
      "name": "getTrade",
      "outputs": [
        {
          "components": [
            {
              "internalType": "address",
              "name": "seller",
              "type": "address"
            },
            {
              "internalType": "uint256",
              "name": "photoId",
              "type": "uint256"
            },
            {
              "internalType": "uint256",
              "name": "photoPrice",
              "type": "uint256"
            },
            {
              "internalType": "bytes32",
              "name": "status",
              "type": "bytes32"
            },
            {
              "internalType": "bool",
              "name": "premiumStatus",
              "type": "bool"
            }
          ],
          "internalType": "struct PhotoNFTTradable.Trade",
          "name": "trade_",
          "type": "tuple"
        }
      ],
      "stateMutability": "view",
      "type": "function",
      "constant": true
    },
    {
      "inputs": [
        {
          "internalType": "contract PhotoNFT",
          "name": "photoNFT",
          "type": "address"
        },
        {
          "internalType": "uint256",
          "name": "_photoId",
          "type": "uint256"
        }
      ],
      "name": "openTrade",
      "outputs": [],
      "stateMutability": "nonpayable",
      "type": "function"
    },
    {
      "inputs": [
        {
          "internalType": "contract PhotoNFT",
          "name": "photoNFT",
          "type": "address"
        },
        {
          "internalType": "uint256",
          "name": "_photoId",
          "type": "uint256"
        },
        {
          "internalType": "uint256",
          "name": "_photoPrice",
          "type": "uint256"
        }
      ],
      "name": "openTradeWhenCreateNewPhotoNFT",
      "outputs": [],
      "stateMutability": "nonpayable",
      "type": "function"
    },
    {
      "inputs": [],
      "name": "photoNFTData",
      "outputs": [
        {
          "internalType": "contract PhotoNFTData",
          "name": "",
          "type": "address"
        }
      ],
      "stateMutability": "view",
      "type": "function",
      "constant": true
    },
    {
      "inputs": [
        {
          "internalType": "address",
          "name": "",
          "type": "address"
        }
      ],
      "name": "trades",
      "outputs": [
        {
          "internalType": "address",
          "name": "seller",
          "type": "address"
        },
        {
          "internalType": "uint256",
          "name": "photoId",
          "type": "uint256"
        },
        {
          "internalType": "uint256",
          "name": "photoPrice",
          "type": "uint256"
        },
        {
          "internalType": "bytes32",
          "name": "status",
          "type": "bytes32"
        },
        {
          "internalType": "bool",
          "name": "premiumStatus",
          "type": "bool"
        }
      ],
      "stateMutability": "view",
      "type": "function",
      "constant": true
    },
    {
      "inputs": [
        {
          "internalType": "contract PhotoNFT",
          "name": "_photoNFT",
          "type": "address"
        },
        {
          "internalType": "uint256",
          "name": "_photoId",
          "type": "uint256"
        },
        {
          "internalType": "address",
          "name": "_buyer",
          "type": "address"
        }
      ],
      "name": "transferOwnershipOfPhotoNFT",
      "outputs": [],
      "stateMutability": "nonpayable",
      "type": "function"
    },
    {
      "inputs": [
        {
          "internalType": "contract PhotoNFT",
          "name": "photoNFT",
          "type": "address"
        },
        {
          "internalType": "uint256",
          "name": "_photoId",
          "type": "uint256"
        },
        {
          "internalType": "bool",
          "name": "_newState",
          "type": "bool"
        }
      ],
      "name": "updatePremiumStatus",
      "outputs": [],
      "stateMutability": "nonpayable",
      "type": "function"
    },
    {
      "inputs": [
        {
          "internalType": "contract PhotoNFT",
          "name": "_photoNFT",
          "type": "address"
        }
      ],
      "name": "buyPhotoNFT",
      "outputs": [
        {
          "internalType": "bool",
          "name": "",
          "type": "bool"
        }
      ],
      "stateMutability": "payable",
      "type": "function",
      "payable": true
    },
    {
      "inputs": [
        {
          "internalType": "address",
          "name": "from",
          "type": "address"
        },
        {
          "internalType": "address",
          "name": "to",
          "type": "address"
        },
        {
          "internalType": "uint256",
          "name": "photoId",
          "type": "uint256"
        }
      ],
      "name": "reputation",
      "outputs": [
        {
          "internalType": "uint256",
          "name": "",
          "type": "uint256"
        },
        {
          "internalType": "uint256",
          "name": "",
          "type": "uint256"
        }
      ],
      "stateMutability": "nonpayable",
      "type": "function"
    },
    {
      "inputs": [
        {
          "internalType": "uint256",
          "name": "photoId",
          "type": "uint256"
        }
      ],
      "name": "getReputationCount",
      "outputs": [
        {
          "internalType": "uint256",
          "name": "",
          "type": "uint256"
        }
      ],
      "stateMutability": "view",
      "type": "function",
      "constant": true
    }
  ],
  "bytecode": "0x60806040523480156200001157600080fd5b50604051620024be380380620024be83398181016040528101906200003791906200014c565b80806000806101000a81548173ffffffffffffffffffffffffffffffffffffffff021916908373ffffffffffffffffffffffffffffffffffffffff160217905550600060028190555050806000806101000a81548173ffffffffffffffffffffffffffffffffffffffff021916908373ffffffffffffffffffffffffffffffffffffffff160217905550600030905050506200017e565b600080fd5b600073ffffffffffffffffffffffffffffffffffffffff82169050919050565b60006200010082620000d3565b9050919050565b60006200011482620000f3565b9050919050565b620001268162000107565b81146200013257600080fd5b50565b60008151905062000146816200011b565b92915050565b600060208284031215620001655762000164620000ce565b5b6000620001758482850162000135565b91505092915050565b612330806200018e6000396000f3fe6080604052600436106100a75760003560e01c806380a279c41161006457806380a279c4146101bf5780638d6b52f3146101e8578063a2793daf14610211578063a9f752e51461024f578063ab7a6c3e14610290578063ec039514146102cd576100a7565b806316f946ef146100ac578063493c2176146100dc57806349b1d3e7146101055780634fe71d131461012e578063759c4bf3146101595780637cc0c9bd14610182575b600080fd5b6100c660048036038101906100c191906114a4565b6102f8565b6040516100d391906114ec565b60405180910390f35b3480156100e857600080fd5b5061010360048036038101906100fe9190611569565b610793565b005b34801561011157600080fd5b5061012c600480360381019061012791906115bc565b6108f1565b005b34801561013a57600080fd5b50610143610add565b604051610150919061161e565b60405180910390f35b34801561016557600080fd5b50610180600480360381019061017b9190611639565b610b03565b005b34801561018e57600080fd5b506101a960048036038101906101a49190611679565b610d80565b6040516101b691906116b5565b60405180910390f35b3480156101cb57600080fd5b506101e660048036038101906101e19190611639565b610d8c565b005b3480156101f457600080fd5b5061020f600480360381019061020a91906116fc565b610fe5565b005b34801561021d57600080fd5b506102386004803603810190610233919061174f565b6111c3565b6040516102469291906117a2565b60405180910390f35b34801561025b57600080fd5b50610276600480360381019061027191906117cb565b6111d5565b604051610287959493929190611811565b60405180910390f35b34801561029c57600080fd5b506102b760048036038101906102b291906114a4565b611238565b6040516102c49190611908565b60405180910390f35b3480156102d957600080fd5b506102e2611326565b6040516102ef9190611982565b60405180910390f35b60008082905060008060009054906101000a900473ffffffffffffffffffffffffffffffffffffffff1673ffffffffffffffffffffffffffffffffffffffff16637fd6c405836040518263ffffffff1660e01b815260040161035a91906119be565b60006040518083038186803b15801561037257600080fd5b505afa158015610386573d6000803e3d6000fd5b505050506040513d6000823e3d601f19601f820116820180604052508101906103af9190611cf1565b9050600081606001519050600081905060008360800151905080341461040a576040517f08c379a000000000000000000000000000000000000000000000000000000000815260040161040190611dbd565b60405180910390fd5b8173ffffffffffffffffffffffffffffffffffffffff166108fc829081150290604051600060405180830381858888f19350505050158015610450573d6000803e3d6000fd5b5060003390506000600190508673ffffffffffffffffffffffffffffffffffffffff1663095ea7b383836040518363ffffffff1660e01b8152600401610497929190611ddd565b600060405180830381600087803b1580156104b157600080fd5b505af11580156104c5573d6000803e3d6000fd5b5050505060008773ffffffffffffffffffffffffffffffffffffffff16636352211e836040518263ffffffff1660e01b815260040161050491906116b5565b60206040518083038186803b15801561051c57600080fd5b505afa158015610530573d6000803e3d6000fd5b505050506040513d601f19601f820116820180604052508101906105549190611e06565b9050610561888385610793565b60008054906101000a900473ffffffffffffffffffffffffffffffffffffffff1673ffffffffffffffffffffffffffffffffffffffff16637cb1479b89856040518363ffffffff1660e01b81526004016105bc929190611e33565b602060405180830381600087803b1580156105d657600080fd5b505af11580156105ea573d6000803e3d6000fd5b505050506040513d601f19601f8201168201806040525081019061060e9190611e5c565b5060008054906101000a900473ffffffffffffffffffffffffffffffffffffffff1673ffffffffffffffffffffffffffffffffffffffff16639bab7f4a896040518263ffffffff1660e01b81526004016106689190611ed5565b602060405180830381600087803b15801561068257600080fd5b505af1158015610696573d6000803e3d6000fd5b505050506040513d601f19601f820116820180604052508101906106ba9190611e5c565b5060008873ffffffffffffffffffffffffffffffffffffffff16636352211e846040518263ffffffff1660e01b81526004016106f691906116b5565b60206040518083038186803b15801561070e57600080fd5b505afa158015610722573d6000803e3d6000fd5b505050506040513d601f19601f820116820180604052508101906107469190611e06565b90507fa8ffd0052cf94298cdb4d728ccaebde44f94e7568e31b2129a24a8b2e10fea8c8984848460405161077d9493929190611f03565b60405180910390a1505050505050505050919050565b600083905060006107a385611238565b90507f4f70656e0000000000000000000000000000000000000000000000000000000081606001511461080b576040517f08c379a000000000000000000000000000000000000000000000000000000000815260040161080290611f94565b60405180910390fd5b61081685858561134a565b8173ffffffffffffffffffffffffffffffffffffffff166323b872dd308584602001516040518463ffffffff1660e01b815260040161085793929190611fb4565b600060405180830381600087803b15801561087157600080fd5b505af1158015610885573d6000803e3d6000fd5b505050507f43616e63656c6c656400000000000000000000000000000000000000000000008160600181815250507fee0bd10dbd5c2151f43ed2fa6af0584fbad842aa901d657f39fffd140822ae70856040516108e29190612011565b60405180910390a15050505050565b8273ffffffffffffffffffffffffffffffffffffffff166323b872dd3330856040518463ffffffff1660e01b815260040161092e93929190611fb4565b600060405180830381600087803b15801561094857600080fd5b505af115801561095c573d6000803e3d6000fd5b505050506001600260008282546109739190612067565b925050819055506040518060a001604052803373ffffffffffffffffffffffffffffffffffffffff1681526020018381526020018281526020017f4f70656e00000000000000000000000000000000000000000000000000000000815260200160001515815250600160008573ffffffffffffffffffffffffffffffffffffffff1673ffffffffffffffffffffffffffffffffffffffff16815260200190815260200160002060008201518160000160006101000a81548173ffffffffffffffffffffffffffffffffffffffff021916908373ffffffffffffffffffffffffffffffffffffffff16021790555060208201518160010155604082015181600201556060820151816003015560808201518160040160006101000a81548160ff0219169083151502179055509050507fee0bd10dbd5c2151f43ed2fa6af0584fbad842aa901d657f39fffd140822ae7083604051610ad091906120e3565b60405180910390a1505050565b600360009054906101000a900473ffffffffffffffffffffffffffffffffffffffff1681565b6000600160008473ffffffffffffffffffffffffffffffffffffffff1673ffffffffffffffffffffffffffffffffffffffff16815260200190815260200160002090508060000160009054906101000a900473ffffffffffffffffffffffffffffffffffffffff1673ffffffffffffffffffffffffffffffffffffffff163373ffffffffffffffffffffffffffffffffffffffff1614610bd8576040517f08c379a0000000000000000000000000000000000000000000000000000000008152600401610bcf9061217c565b60405180910390fd5b60008054906101000a900473ffffffffffffffffffffffffffffffffffffffff1673ffffffffffffffffffffffffffffffffffffffff16639bab7f4a846040518263ffffffff1660e01b8152600401610c319190611ed5565b602060405180830381600087803b158015610c4b57600080fd5b505af1158015610c5f573d6000803e3d6000fd5b505050506040513d601f19601f82011682018060405250810190610c839190611e5c565b508273ffffffffffffffffffffffffffffffffffffffff166323b872dd308360000160009054906101000a900473ffffffffffffffffffffffffffffffffffffffff1684600101546040518463ffffffff1660e01b8152600401610ce993929190611fb4565b600060405180830381600087803b158015610d0357600080fd5b505af1158015610d17573d6000803e3d6000fd5b505050507f43616e63656c6c6564000000000000000000000000000000000000000000000081600301819055507fee0bd10dbd5c2151f43ed2fa6af0584fbad842aa901d657f39fffd140822ae7083604051610d739190612011565b60405180910390a1505050565b60008080915050919050565b6000600160008473ffffffffffffffffffffffffffffffffffffffff1673ffffffffffffffffffffffffffffffffffffffff16815260200190815260200160002090508060000160009054906101000a900473ffffffffffffffffffffffffffffffffffffffff1673ffffffffffffffffffffffffffffffffffffffff163373ffffffffffffffffffffffffffffffffffffffff1614610e61576040517f08c379a0000000000000000000000000000000000000000000000000000000008152600401610e589061220e565b60405180910390fd5b60008054906101000a900473ffffffffffffffffffffffffffffffffffffffff1673ffffffffffffffffffffffffffffffffffffffff16639bab7f4a846040518263ffffffff1660e01b8152600401610eba919061227a565b602060405180830381600087803b158015610ed457600080fd5b505af1158015610ee8573d6000803e3d6000fd5b505050506040513d601f19601f82011682018060405250810190610f0c9190611e5c565b508273ffffffffffffffffffffffffffffffffffffffff166323b872dd333084600101546040518463ffffffff1660e01b8152600401610f4e93929190611fb4565b600060405180830381600087803b158015610f6857600080fd5b505af1158015610f7c573d6000803e3d6000fd5b505050507f4f70656e0000000000000000000000000000000000000000000000000000000081600301819055507fee0bd10dbd5c2151f43ed2fa6af0584fbad842aa901d657f39fffd140822ae7083604051610fd891906120e3565b60405180910390a1505050565b6000600160008573ffffffffffffffffffffffffffffffffffffffff1673ffffffffffffffffffffffffffffffffffffffff16815260200190815260200160002090508060000160009054906101000a900473ffffffffffffffffffffffffffffffffffffffff1673ffffffffffffffffffffffffffffffffffffffff163373ffffffffffffffffffffffffffffffffffffffff16146110ba576040517f08c379a00000000000000000000000000000000000000000000000000000000081526004016110b19061220e565b60405180910390fd5b60008054906101000a900473ffffffffffffffffffffffffffffffffffffffff1673ffffffffffffffffffffffffffffffffffffffff1663c4d55c6885846040518363ffffffff1660e01b81526004016111159291906122a8565b602060405180830381600087803b15801561112f57600080fd5b505af1158015611143573d6000803e3d6000fd5b505050506040513d601f19601f820116820180604052508101906111679190611e5c565b50818160040160006101000a81548160ff0219169083151502179055507ff914bff822f938e06c0aaceb42bb4ca99085426a1e493b755e716662d12163ee84836040516111b59291906122d1565b60405180910390a150505050565b60008060008091509150935093915050565b60016020528060005260406000206000915090508060000160009054906101000a900473ffffffffffffffffffffffffffffffffffffffff16908060010154908060020154908060030154908060040160009054906101000a900460ff16905085565b6112406113d6565b6000600160008473ffffffffffffffffffffffffffffffffffffffff1673ffffffffffffffffffffffffffffffffffffffff1681526020019081526020016000206040518060a00160405290816000820160009054906101000a900473ffffffffffffffffffffffffffffffffffffffff1673ffffffffffffffffffffffffffffffffffffffff1673ffffffffffffffffffffffffffffffffffffffff1681526020016001820154815260200160028201548152602001600382015481526020016004820160009054906101000a900460ff161515151581525050905080915050919050565b60008054906101000a900473ffffffffffffffffffffffffffffffffffffffff1681565b6000600160008573ffffffffffffffffffffffffffffffffffffffff1673ffffffffffffffffffffffffffffffffffffffff1681526020019081526020016000209050818160000160006101000a81548173ffffffffffffffffffffffffffffffffffffffff021916908373ffffffffffffffffffffffffffffffffffffffff16021790555050505050565b6040518060a00160405280600073ffffffffffffffffffffffffffffffffffffffff1681526020016000815260200160008152602001600080191681526020016000151581525090565b6000604051905090565b600080fd5b600080fd5b600073ffffffffffffffffffffffffffffffffffffffff82169050919050565b600061145f82611434565b9050919050565b600061147182611454565b9050919050565b61148181611466565b811461148c57600080fd5b50565b60008135905061149e81611478565b92915050565b6000602082840312156114ba576114b961142a565b5b60006114c88482850161148f565b91505092915050565b60008115159050919050565b6114e6816114d1565b82525050565b600060208201905061150160008301846114dd565b92915050565b6000819050919050565b61151a81611507565b811461152557600080fd5b50565b60008135905061153781611511565b92915050565b61154681611454565b811461155157600080fd5b50565b6000813590506115638161153d565b92915050565b6000806000606084860312156115825761158161142a565b5b60006115908682870161148f565b93505060206115a186828701611528565b92505060406115b286828701611554565b9150509250925092565b6000806000606084860312156115d5576115d461142a565b5b60006115e38682870161148f565b93505060206115f486828701611528565b925050604061160586828701611528565b9150509250925092565b61161881611454565b82525050565b6000602082019050611633600083018461160f565b92915050565b600080604083850312156116505761164f61142a565b5b600061165e8582860161148f565b925050602061166f85828601611528565b9150509250929050565b60006020828403121561168f5761168e61142a565b5b600061169d84828501611528565b91505092915050565b6116af81611507565b82525050565b60006020820190506116ca60008301846116a6565b92915050565b6116d9816114d1565b81146116e457600080fd5b50565b6000813590506116f6816116d0565b92915050565b6000806000606084860312156117155761171461142a565b5b60006117238682870161148f565b935050602061173486828701611528565b9250506040611745868287016116e7565b9150509250925092565b6000806000606084860312156117685761176761142a565b5b600061177686828701611554565b935050602061178786828701611554565b925050604061179886828701611528565b9150509250925092565b60006040820190506117b760008301856116a6565b6117c460208301846116a6565b9392505050565b6000602082840312156117e1576117e061142a565b5b60006117ef84828501611554565b91505092915050565b6000819050919050565b61180b816117f8565b82525050565b600060a082019050611826600083018861160f565b61183360208301876116a6565b61184060408301866116a6565b61184d6060830185611802565b61185a60808301846114dd565b9695505050505050565b61186d81611454565b82525050565b61187c81611507565b82525050565b61188b816117f8565b82525050565b61189a816114d1565b82525050565b60a0820160008201516118b66000850182611864565b5060208201516118c96020850182611873565b5060408201516118dc6040850182611873565b5060608201516118ef6060850182611882565b5060808201516119026080850182611891565b50505050565b600060a08201905061191d60008301846118a0565b92915050565b6000819050919050565b600061194861194361193e84611434565b611923565b611434565b9050919050565b600061195a8261192d565b9050919050565b600061196c8261194f565b9050919050565b61197c81611961565b82525050565b60006020820190506119976000830184611973565b92915050565b60006119a88261194f565b9050919050565b6119b88161199d565b82525050565b60006020820190506119d360008301846119af565b92915050565b600080fd5b6000601f19601f8301169050919050565b7f4e487b7100000000000000000000000000000000000000000000000000000000600052604160045260246000fd5b611a27826119de565b810181811067ffffffffffffffff82111715611a4657611a456119ef565b5b80604052505050565b6000611a59611420565b9050611a658282611a1e565b919050565b600080fd5b600081519050611a7e81611478565b92915050565b600080fd5b600080fd5b600067ffffffffffffffff821115611aa957611aa86119ef565b5b611ab2826119de565b9050602081019050919050565b60005b83811015611add578082015181840152602081019050611ac2565b83811115611aec576000848401525b50505050565b6000611b05611b0084611a8e565b611a4f565b905082815260208101848484011115611b2157611b20611a89565b5b611b2c848285611abf565b509392505050565b600082601f830112611b4957611b48611a84565b5b8151611b59848260208601611af2565b91505092915050565b600081519050611b718161153d565b92915050565b600081519050611b8681611511565b92915050565b600081519050611b9b816116d0565b92915050565b60006101208284031215611bb857611bb76119d9565b5b611bc3610120611a4f565b90506000611bd384828501611a6f565b600083015250602082015167ffffffffffffffff811115611bf757611bf6611a6a565b5b611c0384828501611b34565b602083015250604082015167ffffffffffffffff811115611c2757611c26611a6a565b5b611c3384828501611b34565b6040830152506060611c4784828501611b62565b6060830152506080611c5b84828501611b77565b60808301525060a082015167ffffffffffffffff811115611c7f57611c7e611a6a565b5b611c8b84828501611b34565b60a08301525060c082015167ffffffffffffffff811115611caf57611cae611a6a565b5b611cbb84828501611b34565b60c08301525060e0611ccf84828501611b77565b60e083015250610100611ce484828501611b8c565b6101008301525092915050565b600060208284031215611d0757611d0661142a565b5b600082015167ffffffffffffffff811115611d2557611d2461142f565b5b611d3184828501611ba1565b91505092915050565b600082825260208201905092915050565b7f6d73672e76616c75652073686f756c6420626520657175616c20746f2074686560008201527f20627579416d6f756e7400000000000000000000000000000000000000000000602082015250565b6000611da7602a83611d3a565b9150611db282611d4b565b604082019050919050565b60006020820190508181036000830152611dd681611d9a565b9050919050565b6000604082019050611df2600083018561160f565b611dff60208301846116a6565b9392505050565b600060208284031215611e1c57611e1b61142a565b5b6000611e2a84828501611b62565b91505092915050565b6000604082019050611e4860008301856119af565b611e55602083018461160f565b9392505050565b600060208284031215611e7257611e7161142a565b5b6000611e8084828501611b8c565b91505092915050565b7f43616e63656c6c65640000000000000000000000000000000000000000000000600082015250565b6000611ebf600983611d3a565b9150611eca82611e89565b602082019050919050565b6000604082019050611eea60008301846119af565b8181036020830152611efb81611eb2565b905092915050565b6000608082019050611f1860008301876119af565b611f2560208301866116a6565b611f32604083018561160f565b611f3f606083018461160f565b95945050505050565b7f5472616465206973206e6f74204f70656e2e0000000000000000000000000000600082015250565b6000611f7e601283611d3a565b9150611f8982611f48565b602082019050919050565b60006020820190508181036000830152611fad81611f71565b9050919050565b6000606082019050611fc9600083018661160f565b611fd6602083018561160f565b611fe360408301846116a6565b949350505050565b7f43616e63656c6c65640000000000000000000000000000000000000000000000815250565b6000604082019050612026600083018461160f565b61203260208301611feb565b92915050565b7f4e487b7100000000000000000000000000000000000000000000000000000000600052601160045260246000fd5b600061207282611507565b915061207d83611507565b9250827fffffffffffffffffffffffffffffffffffffffffffffffffffffffffffffffff038211156120b2576120b1612038565b5b828201905092915050565b7f4f70656e00000000000000000000000000000000000000000000000000000000815250565b60006040820190506120f8600083018461160f565b612104602083016120bd565b92915050565b7f54726164652063616e2062652063616e63656c6c6564206f6e6c79206279207360008201527f656c6c65722e0000000000000000000000000000000000000000000000000000602082015250565b6000612166602683611d3a565b91506121718261210a565b604082019050919050565b6000602082019050818103600083015261219581612159565b9050919050565b7f54726164652063616e206265206f70656e206f6e6c792062792073656c6c657260008201527f2e00000000000000000000000000000000000000000000000000000000000000602082015250565b60006121f8602183611d3a565b91506122038261219c565b604082019050919050565b60006020820190508181036000830152612227816121eb565b9050919050565b7f4f70656e00000000000000000000000000000000000000000000000000000000600082015250565b6000612264600483611d3a565b915061226f8261222e565b602082019050919050565b600060408201905061228f60008301846119af565b81810360208301526122a081612257565b905092915050565b60006040820190506122bd60008301856119af565b6122ca60208301846114dd565b9392505050565b60006040820190506122e6600083018561160f565b6122f360208301846114dd565b939250505056fea2646970667358221220fd54131fc7ac09585700eb503645fd96ddb1171a1a2cd04f893625c9bdbabdf464736f6c63430008090033",
  "immutableReferences": {},
  "source": "// SPDX-License-Identifier: MIT\r\npragma solidity ^0.8.0;\r\npragma experimental ABIEncoderV2;\r\n\r\n//import { ERC20 } from './openzeppelin-solidity/contracts/token/ERC20/ERC20.sol';\r\nimport { PhotoNFT } from \"./PhotoNFT.sol\";\r\nimport { PhotoNFTTradable } from \"./PhotoNFTTradable.sol\";\r\nimport { PhotoNFTMarketplaceEvents } from \"./photo-nft-marketplace/commons/PhotoNFTMarketplaceEvents.sol\";\r\nimport { PhotoNFTData } from \"./PhotoNFTData.sol\";\r\n\r\n\r\ncontract PhotoNFTMarketplace is PhotoNFTTradable, PhotoNFTMarketplaceEvents {\r\n\r\n    address public PHOTO_NFT_MARKETPLACE;\r\n\r\n    // PhotoNFTData public photoNFTData;\r\n\r\n    constructor(PhotoNFTData _photoNFTData) public PhotoNFTTradable(_photoNFTData) {\r\n        photoNFTData = _photoNFTData;\r\n        address payable PHOTO_NFT_MARKETPLACE = payable(address(this));\r\n    }\r\n\r\n    /** \r\n     * @notice - Buy function is that buy NFT token and ownership transfer. (Reference from IERC721.sol)\r\n     * @notice - msg.sender buy NFT with ETH (msg.value)\r\n     * @notice - PhotoID is always 1. Because each photoNFT is unique.\r\n     */\r\n    function buyPhotoNFT(PhotoNFT _photoNFT) public payable returns (bool) {\r\n        PhotoNFT photoNFT = _photoNFT;\r\n\r\n        PhotoNFTData.Photo memory photo = photoNFTData.getPhotoByNFTAddress(photoNFT);\r\n        address _seller = photo.ownerAddress;                     // Owner\r\n        address payable seller = payable(_seller);  // Convert owner address with payable\r\n        uint buyAmount = photo.photoPrice;\r\n        require (msg.value == buyAmount, \"msg.value should be equal to the buyAmount\");\r\n \r\n        // Bought-amount is transferred into a seller wallet\r\n        seller.transfer(buyAmount);\r\n\r\n        // Approve a buyer address as a receiver before NFT's transferFrom method is executed\r\n        address buyer = msg.sender;\r\n        uint photoId = 1;  // [Note]: PhotoID is always 1. Because each photoNFT is unique.\r\n        photoNFT.approve(buyer, photoId);\r\n\r\n        address ownerBeforeOwnershipTransferred = photoNFT.ownerOf(photoId);\r\n\r\n        // Transfer Ownership of the PhotoNFT from a seller to a buyer\r\n        transferOwnershipOfPhotoNFT(photoNFT, photoId, buyer);    \r\n        photoNFTData.updateOwnerOfPhotoNFT(photoNFT, buyer);\r\n        photoNFTData.updateStatus(photoNFT, \"Cancelled\");\r\n\r\n        // Event for checking result of transferring ownership of a photoNFT\r\n        address ownerAfterOwnershipTransferred = photoNFT.ownerOf(photoId);\r\n        emit PhotoNFTOwnershipChanged(photoNFT, photoId, ownerBeforeOwnershipTransferred, ownerAfterOwnershipTransferred);\r\n\r\n        // Mint a photo with a new photoId\r\n        //string memory tokenURI = photoNFTFactory.getTokenURI(photoData.ipfsHashOfPhoto);  // [Note]: IPFS hash + URL\r\n        //photoNFT.mint(msg.sender, tokenURI);\r\n    }\r\n\r\n\r\n    ///-----------------------------------------------------\r\n    /// Methods below are pending methods\r\n    ///-----------------------------------------------------\r\n\r\n    /** \r\n     * @dev reputation function is that gives reputation to a user who has ownership of being posted photo.\r\n     * @dev Each user has reputation data in struct\r\n     */\r\n    function reputation(address from, address to, uint256 photoId) public returns (uint256, uint256) {\r\n\r\n        // Photo storage photo = photos[photoId];\r\n        // photo.reputation = photo.reputation.add(1);\r\n\r\n        // emit AddReputation(photoId, photo.reputation);\r\n\r\n        // return (photoId, photo.reputation);\r\n        return (0, 0);\r\n    }\r\n    \r\n\r\n    function getReputationCount(uint256 photoId) public view returns (uint256) {\r\n        uint256 curretReputationCount;\r\n\r\n        // Photo memory photo = photos[photoId];\r\n        // curretReputationCount = photo.reputation;\r\n\r\n        return curretReputationCount;\r\n    }    \r\n\r\n}\r\n",
  "sourcePath": "C:\\testing\\NFT-marketplace\\contracts\\PhotoNFTMarketplace.sol",
  "compiler": {
    "name": "solc",
    "version": "0.8.9+commit.e5eed63a.Emscripten.clang"
  },
  "schemaVersion": "3.4.3",
  "updatedAt": "2021-10-16T13:22:06.159Z",
  "networkType": "ethereum",
  "devdoc": {
    "kind": "dev",
    "methods": {
      "cancelTrade(address,uint256)": {
        "details": "Cancels a trade by the seller."
      },
      "getTrade(address)": {
        "details": "- Returns the details for a trade."
      },
      "openTrade(address,uint256)": {
        "details": "Opens a trade by the seller."
      },
      "openTradeWhenCreateNewPhotoNFT(address,uint256,uint256)": {
        "details": "Opens a new trade. Puts _photoId in escrow.",
        "params": {
          "_photoId": "The id for the photoId to trade.",
          "_photoPrice": "The amount of currency for which to trade the photoId."
        }
      },
      "reputation(address,address,uint256)": {
        "details": "reputation function is that gives reputation to a user who has ownership of being posted photo.Each user has reputation data in struct"
      },
      "transferOwnershipOfPhotoNFT(address,uint256,address)": {
        "details": "Executes a trade. Must have approved this contract to transfer the amount of currency specified to the seller. Transfers ownership of the photoId to the filler."
      },
      "updatePremiumStatus(address,uint256,bool)": {
        "details": "Opens a trade by the seller."
      }
    },
    "version": 1
  },
  "userdoc": {
    "kind": "user",
    "methods": {
      "buyPhotoNFT(address)": {
        "notice": "- Buy function is that buy NFT token and ownership transfer. (Reference from IERC721.sol)- msg.sender buy NFT with ETH (msg.value)- PhotoID is always 1. Because each photoNFT is unique."
      },
      "openTradeWhenCreateNewPhotoNFT(address,uint256,uint256)": {
        "notice": "- This method is only executed when a seller create a new PhotoNFT"
      }
    },
    "version": 1
  }
}