{
  "contractName": "PhotoNFTFactory",
  "abi": [
    {
      "inputs": [
        {
          "internalType": "contract PhotoNFTMarketplace",
          "name": "_photoNFTMarketplace",
          "type": "address"
        },
        {
          "internalType": "contract PhotoNFTData",
          "name": "_photoNFTData",
          "type": "address"
        }
      ],
      "stateMutability": "nonpayable",
      "type": "constructor"
    },
    {
      "anonymous": false,
      "inputs": [
        {
          "indexed": false,
          "internalType": "uint256",
          "name": "tokenId",
          "type": "uint256"
        },
        {
          "indexed": false,
          "internalType": "uint256",
          "name": "reputationCount",
          "type": "uint256"
        }
      ],
      "name": "AddReputation",
      "type": "event"
    },
    {
      "anonymous": false,
      "inputs": [
        {
          "indexed": false,
          "internalType": "address",
          "name": "owner",
          "type": "address"
        },
        {
          "indexed": false,
          "internalType": "contract PhotoNFT",
          "name": "photoNFT",
          "type": "address"
        },
        {
          "indexed": false,
          "internalType": "string",
          "name": "nftName",
          "type": "string"
        },
        {
          "indexed": false,
          "internalType": "string",
          "name": "nftSymbol",
          "type": "string"
        },
        {
          "indexed": false,
          "internalType": "uint256",
          "name": "photoPrice",
          "type": "uint256"
        },
        {
          "indexed": false,
          "internalType": "string",
          "name": "ipfsHashOfPhoto",
          "type": "string"
        }
      ],
      "name": "PhotoNFTCreated",
      "type": "event"
    },
    {
      "inputs": [
        {
          "internalType": "uint256",
          "name": "",
          "type": "uint256"
        }
      ],
      "name": "photoAddresses",
      "outputs": [
        {
          "internalType": "address",
          "name": "",
          "type": "address"
        }
      ],
      "stateMutability": "view",
      "type": "function",
      "constant": true
    },
    {
      "inputs": [],
      "name": "photoNFTData",
      "outputs": [
        {
          "internalType": "contract PhotoNFTData",
          "name": "",
          "type": "address"
        }
      ],
      "stateMutability": "view",
      "type": "function",
      "constant": true
    },
    {
      "inputs": [],
      "name": "photoNFTMarketplace",
      "outputs": [
        {
          "internalType": "contract PhotoNFTMarketplace",
          "name": "",
          "type": "address"
        }
      ],
      "stateMutability": "view",
      "type": "function",
      "constant": true
    },
    {
      "inputs": [
        {
          "internalType": "string",
          "name": "nftName",
          "type": "string"
        },
        {
          "internalType": "string",
          "name": "nftSymbol",
          "type": "string"
        },
        {
          "internalType": "uint256",
          "name": "photoPrice",
          "type": "uint256"
        },
        {
          "internalType": "string",
          "name": "ipfsHashOfPhoto",
          "type": "string"
        }
      ],
      "name": "createNewPhotoNFT",
      "outputs": [
        {
          "internalType": "bool",
          "name": "",
          "type": "bool"
        }
      ],
      "stateMutability": "nonpayable",
      "type": "function"
    },
    {
      "inputs": [],
      "name": "baseTokenURI",
      "outputs": [
        {
          "internalType": "string",
          "name": "",
          "type": "string"
        }
      ],
      "stateMutability": "pure",
      "type": "function",
      "constant": true
    },
    {
      "inputs": [
        {
          "internalType": "string",
          "name": "_ipfsHashOfPhoto",
          "type": "string"
        }
      ],
      "name": "getTokenURI",
      "outputs": [
        {
          "internalType": "string",
          "name": "",
          "type": "string"
        }
      ],
      "stateMutability": "view",
      "type": "function",
      "constant": true
    }
  ],
  "bytecode": "0x60806040523480156200001157600080fd5b5060405162004bbd38038062004bbd8339818101604052810190620000379190620001e7565b81600260006101000a81548173ffffffffffffffffffffffffffffffffffffffff021916908373ffffffffffffffffffffffffffffffffffffffff16021790555080600360006101000a81548173ffffffffffffffffffffffffffffffffffffffff021916908373ffffffffffffffffffffffffffffffffffffffff160217905550600260009054906101000a900473ffffffffffffffffffffffffffffffffffffffff16600160006101000a81548173ffffffffffffffffffffffffffffffffffffffff021916908373ffffffffffffffffffffffffffffffffffffffff16021790555050506200022e565b600080fd5b600073ffffffffffffffffffffffffffffffffffffffff82169050919050565b6000620001568262000129565b9050919050565b60006200016a8262000149565b9050919050565b6200017c816200015d565b81146200018857600080fd5b50565b6000815190506200019c8162000171565b92915050565b6000620001af8262000149565b9050919050565b620001c181620001a2565b8114620001cd57600080fd5b50565b600081519050620001e181620001b6565b92915050565b6000806040838503121562000201576200020062000124565b5b600062000211858286016200018b565b92505060206200022485828601620001d0565b9150509250929050565b61497f806200023e6000396000f3fe60806040523480156200001157600080fd5b50600436106200006a5760003560e01c806371552f6c146200006f578063c4188f1114620000a5578063d3e1f6e314620000c7578063d547cfb714620000fd578063dc0985c3146200011f578063ec0395141462000155575b600080fd5b6200008d600480360381019062000087919062000a9e565b62000177565b6040516200009c919062000b8a565b60405180910390f35b620000af620003f7565b604051620000be919062000c32565b60405180910390f35b620000e56004803603810190620000df919062000c4f565b6200041d565b604051620000f4919062000d33565b60405180910390f35b620001076200043b565b60405162000116919062000d33565b60405180910390f35b6200013d600480360381019062000137919062000d57565b62000478565b6040516200014c919062000dae565b60405180910390f35b6200015f620004b8565b6040516200016e919062000df0565b60405180910390f35b60008033905060006200018a846200041d565b905060008288888489604051620001a190620008df565b620001b195949392919062000e1e565b604051809103906000f080158015620001ce573d6000803e3d6000fd5b5090506000819080600181540180825580915050600190039060005260206000200160009091909190916101000a81548173ffffffffffffffffffffffffffffffffffffffff021916908373ffffffffffffffffffffffffffffffffffffffff160217905550600360009054906101000a900473ffffffffffffffffffffffffffffffffffffffff1673ffffffffffffffffffffffffffffffffffffffff16630633d5536000838b8b338c8c6040518863ffffffff1660e01b81526004016200029e979695949392919062000ff1565b602060405180830381600087803b158015620002b957600080fd5b505af1158015620002ce573d6000803e3d6000fd5b505050506040513d601f19601f82011682018060405250810190620002f49190620010bb565b50600360009054906101000a900473ffffffffffffffffffffffffffffffffffffffff1673ffffffffffffffffffffffffffffffffffffffff16639bab7f4a826040518263ffffffff1660e01b81526004016200035291906200113d565b602060405180830381600087803b1580156200036d57600080fd5b505af115801562000382573d6000803e3d6000fd5b505050506040513d601f19601f82011682018060405250810190620003a89190620010bb565b507f15da3952715f46312a55e03dc9ea5ce0ca9e2b8297f7c8f329d378b195ab173333828a8a8a8a604051620003e4969594939291906200116f565b60405180910390a1505050949350505050565b600260009054906101000a900473ffffffffffffffffffffffffffffffffffffffff1681565b6060620004346200042d6200043b565b83620004de565b9050919050565b60606040518060400160405280601581526020017f68747470733a2f2f697066732e696f2f697066732f0000000000000000000000815250905090565b600081815481106200048957600080fd5b906000526020600020016000915054906101000a900473ffffffffffffffffffffffffffffffffffffffff1681565b600360009054906101000a900473ffffffffffffffffffffffffffffffffffffffff1681565b60606200051c838360405180602001604052806000815250604051806020016040528060008152506040518060200160405280600081525062000524565b905092915050565b60606000869050600086905060008690506000869050600086905060008151835185518751895162000557919062001220565b62000563919062001220565b6200056f919062001220565b6200057b919062001220565b67ffffffffffffffff8111156200059757620005966200091c565b5b6040519080825280601f01601f191660200182016040528015620005ca5781602001600182028036833780820191505090505b50905060008190506000805b88518110156200066a57888181518110620005f657620005f56200127d565b5b602001015160f81c60f81b8383806200060f90620012ac565b9450815181106200062557620006246200127d565b5b60200101907effffffffffffffffffffffffffffffffffffffffffffffffffffffffffffff1916908160001a90535080806200066190620012ac565b915050620005d6565b5060005b875181101562000702578781815181106200068e576200068d6200127d565b5b602001015160f81c60f81b838380620006a790620012ac565b945081518110620006bd57620006bc6200127d565b5b60200101907effffffffffffffffffffffffffffffffffffffffffffffffffffffffffffff1916908160001a9053508080620006f990620012ac565b9150506200066e565b5060005b86518110156200079a578681815181106200072657620007256200127d565b5b602001015160f81c60f81b8383806200073f90620012ac565b9450815181106200075557620007546200127d565b5b60200101907effffffffffffffffffffffffffffffffffffffffffffffffffffffffffffff1916908160001a90535080806200079190620012ac565b91505062000706565b5060005b85518110156200083257858181518110620007be57620007bd6200127d565b5b602001015160f81c60f81b838380620007d790620012ac565b945081518110620007ed57620007ec6200127d565b5b60200101907effffffffffffffffffffffffffffffffffffffffffffffffffffffffffffff1916908160001a90535080806200082990620012ac565b9150506200079e565b5060005b8451811015620008ca578481815181106200085657620008556200127d565b5b602001015160f81c60f81b8383806200086f90620012ac565b9450815181106200088557620008846200127d565b5b60200101907effffffffffffffffffffffffffffffffffffffffffffffffffffffffffffff1916908160001a9053508080620008c190620012ac565b91505062000836565b50819850505050505050505095945050505050565b61364f80620012fb83390190565b6000604051905090565b600080fd5b600080fd5b600080fd5b600080fd5b6000601f19601f8301169050919050565b7f4e487b7100000000000000000000000000000000000000000000000000000000600052604160045260246000fd5b62000956826200090b565b810181811067ffffffffffffffff821117156200097857620009776200091c565b5b80604052505050565b60006200098d620008ed565b90506200099b82826200094b565b919050565b600067ffffffffffffffff821115620009be57620009bd6200091c565b5b620009c9826200090b565b9050602081019050919050565b82818337600083830152505050565b6000620009fc620009f684620009a0565b62000981565b90508281526020810184848401111562000a1b5762000a1a62000906565b5b62000a28848285620009d6565b509392505050565b600082601f83011262000a485762000a4762000901565b5b813562000a5a848260208601620009e5565b91505092915050565b6000819050919050565b62000a788162000a63565b811462000a8457600080fd5b50565b60008135905062000a988162000a6d565b92915050565b6000806000806080858703121562000abb5762000aba620008f7565b5b600085013567ffffffffffffffff81111562000adc5762000adb620008fc565b5b62000aea8782880162000a30565b945050602085013567ffffffffffffffff81111562000b0e5762000b0d620008fc565b5b62000b1c8782880162000a30565b935050604062000b2f8782880162000a87565b925050606085013567ffffffffffffffff81111562000b535762000b52620008fc565b5b62000b618782880162000a30565b91505092959194509250565b60008115159050919050565b62000b848162000b6d565b82525050565b600060208201905062000ba1600083018462000b79565b92915050565b600073ffffffffffffffffffffffffffffffffffffffff82169050919050565b6000819050919050565b600062000bf262000bec62000be68462000ba7565b62000bc7565b62000ba7565b9050919050565b600062000c068262000bd1565b9050919050565b600062000c1a8262000bf9565b9050919050565b62000c2c8162000c0d565b82525050565b600060208201905062000c49600083018462000c21565b92915050565b60006020828403121562000c685762000c67620008f7565b5b600082013567ffffffffffffffff81111562000c895762000c88620008fc565b5b62000c978482850162000a30565b91505092915050565b600081519050919050565b600082825260208201905092915050565b60005b8381101562000cdc57808201518184015260208101905062000cbf565b8381111562000cec576000848401525b50505050565b600062000cff8262000ca0565b62000d0b818562000cab565b935062000d1d81856020860162000cbc565b62000d28816200090b565b840191505092915050565b6000602082019050818103600083015262000d4f818462000cf2565b905092915050565b60006020828403121562000d705762000d6f620008f7565b5b600062000d808482850162000a87565b91505092915050565b600062000d968262000ba7565b9050919050565b62000da88162000d89565b82525050565b600060208201905062000dc5600083018462000d9d565b92915050565b600062000dd88262000bf9565b9050919050565b62000dea8162000dcb565b82525050565b600060208201905062000e07600083018462000ddf565b92915050565b62000e188162000a63565b82525050565b600060a08201905062000e35600083018862000d9d565b818103602083015262000e49818762000cf2565b9050818103604083015262000e5f818662000cf2565b9050818103606083015262000e75818562000cf2565b905062000e86608083018462000e0d565b9695505050505050565b600081549050919050565b600082825260208201905092915050565b60008190508160005260206000209050919050565b62000ecc8162000d89565b82525050565b600062000ee0838362000ec1565b60208301905092915050565b60008160001c9050919050565b600073ffffffffffffffffffffffffffffffffffffffff82169050919050565b600062000f3062000f2a8362000eec565b62000ef9565b9050919050565b600062000f45825462000f19565b9050919050565b6000600182019050919050565b600062000f668262000e90565b62000f72818562000e9b565b935062000f7f8362000eac565b8060005b8381101562000fbf5762000f978262000f37565b62000fa3888262000ed2565b975062000fb08362000f4c565b92505060018101905062000f83565b5085935050505092915050565b600062000fd98262000bf9565b9050919050565b62000feb8162000fcc565b82525050565b600060e08201905081810360008301526200100d818a62000f59565b90506200101e602083018962000fe0565b818103604083015262001032818862000cf2565b9050818103606083015262001048818762000cf2565b905062001059608083018662000d9d565b6200106860a083018562000e0d565b81810360c08301526200107c818462000cf2565b905098975050505050505050565b620010958162000b6d565b8114620010a157600080fd5b50565b600081519050620010b5816200108a565b92915050565b600060208284031215620010d457620010d3620008f7565b5b6000620010e484828501620010a4565b91505092915050565b7f4f70656e00000000000000000000000000000000000000000000000000000000600082015250565b60006200112560048362000cab565b91506200113282620010ed565b602082019050919050565b600060408201905062001154600083018462000fe0565b8181036020830152620011678162001116565b905092915050565b600060c08201905062001186600083018962000d9d565b62001195602083018862000fe0565b8181036040830152620011a9818762000cf2565b90508181036060830152620011bf818662000cf2565b9050620011d0608083018562000e0d565b81810360a0830152620011e4818462000cf2565b9050979650505050505050565b7f4e487b7100000000000000000000000000000000000000000000000000000000600052601160045260246000fd5b60006200122d8262000a63565b91506200123a8362000a63565b9250827fffffffffffffffffffffffffffffffffffffffffffffffffffffffffffffffff03821115620012725762001271620011f1565b5b828201905092915050565b7f4e487b7100000000000000000000000000000000000000000000000000000000600052603260045260246000fd5b6000620012b98262000a63565b91507fffffffffffffffffffffffffffffffffffffffffffffffffffffffffffffffff821415620012ef57620012ee620011f1565b5b60018201905091905056fe60806040523480156200001157600080fd5b506040516200364f3803806200364f8339818101604052810190620000379190620006c2565b8383816000908051906020019062000051929190620003d5565b5080600190805190602001906200006a929190620003d5565b5050506200007f85836200008b60201b60201c565b50505050505062000a73565b6000806200009e620000e560201b60201c565b905060076000815480929190620000b590620007d6565b9190505550620000cc8482620000fd60201b60201c565b620000de8184620002e360201b60201c565b5092915050565b60006001600754620000f8919062000824565b905090565b600073ffffffffffffffffffffffffffffffffffffffff168273ffffffffffffffffffffffffffffffffffffffff16141562000170576040517f08c379a00000000000000000000000000000000000000000000000000000000081526004016200016790620008e2565b60405180910390fd5b62000181816200036460201b60201c565b15620001c4576040517f08c379a0000000000000000000000000000000000000000000000000000000008152600401620001bb9062000954565b60405180910390fd5b620001d860008383620003d060201b60201c565b6001600360008473ffffffffffffffffffffffffffffffffffffffff1673ffffffffffffffffffffffffffffffffffffffff16815260200190815260200160002060008282546200022a919062000824565b92505081905550816002600083815260200190815260200160002060006101000a81548173ffffffffffffffffffffffffffffffffffffffff021916908373ffffffffffffffffffffffffffffffffffffffff160217905550808273ffffffffffffffffffffffffffffffffffffffff16600073ffffffffffffffffffffffffffffffffffffffff167fddf252ad1be2c89b69c2b068fc378daa952ba7f163c4a11628f55a4df523b3ef60405160405180910390a45050565b620002f4826200036460201b60201c565b62000336576040517f08c379a00000000000000000000000000000000000000000000000000000000081526004016200032d90620009ec565b60405180910390fd5b806006600084815260200190815260200160002090805190602001906200035f929190620003d5565b505050565b60008073ffffffffffffffffffffffffffffffffffffffff166002600084815260200190815260200160002060009054906101000a900473ffffffffffffffffffffffffffffffffffffffff1673ffffffffffffffffffffffffffffffffffffffff1614159050919050565b505050565b828054620003e39062000a3d565b90600052602060002090601f01602090048101928262000407576000855562000453565b82601f106200042257805160ff191683800117855562000453565b8280016001018555821562000453579182015b828111156200045257825182559160200191906001019062000435565b5b50905062000462919062000466565b5090565b5b808211156200048157600081600090555060010162000467565b5090565b6000604051905090565b600080fd5b600080fd5b600073ffffffffffffffffffffffffffffffffffffffff82169050919050565b6000620004c68262000499565b9050919050565b620004d881620004b9565b8114620004e457600080fd5b50565b600081519050620004f881620004cd565b92915050565b600080fd5b600080fd5b6000601f19601f8301169050919050565b7f4e487b7100000000000000000000000000000000000000000000000000000000600052604160045260246000fd5b620005538262000508565b810181811067ffffffffffffffff8211171562000575576200057462000519565b5b80604052505050565b60006200058a62000485565b905062000598828262000548565b919050565b600067ffffffffffffffff821115620005bb57620005ba62000519565b5b620005c68262000508565b9050602081019050919050565b60005b83811015620005f3578082015181840152602081019050620005d6565b8381111562000603576000848401525b50505050565b6000620006206200061a846200059d565b6200057e565b9050828152602081018484840111156200063f576200063e62000503565b5b6200064c848285620005d3565b509392505050565b600082601f8301126200066c576200066b620004fe565b5b81516200067e84826020860162000609565b91505092915050565b6000819050919050565b6200069c8162000687565b8114620006a857600080fd5b50565b600081519050620006bc8162000691565b92915050565b600080600080600060a08688031215620006e157620006e06200048f565b5b6000620006f188828901620004e7565b955050602086015167ffffffffffffffff81111562000715576200071462000494565b5b620007238882890162000654565b945050604086015167ffffffffffffffff81111562000747576200074662000494565b5b620007558882890162000654565b935050606086015167ffffffffffffffff81111562000779576200077862000494565b5b620007878882890162000654565b92505060806200079a88828901620006ab565b9150509295509295909350565b7f4e487b7100000000000000000000000000000000000000000000000000000000600052601160045260246000fd5b6000620007e38262000687565b91507fffffffffffffffffffffffffffffffffffffffffffffffffffffffffffffffff821415620008195762000818620007a7565b5b600182019050919050565b6000620008318262000687565b91506200083e8362000687565b9250827fffffffffffffffffffffffffffffffffffffffffffffffffffffffffffffffff03821115620008765762000875620007a7565b5b828201905092915050565b600082825260208201905092915050565b7f4552433732313a206d696e7420746f20746865207a65726f2061646472657373600082015250565b6000620008ca60208362000881565b9150620008d78262000892565b602082019050919050565b60006020820190508181036000830152620008fd81620008bb565b9050919050565b7f4552433732313a20746f6b656e20616c7265616479206d696e74656400000000600082015250565b60006200093c601c8362000881565b9150620009498262000904565b602082019050919050565b600060208201905081810360008301526200096f816200092d565b9050919050565b7f45524337323155524953746f726167653a2055524920736574206f66206e6f6e60008201527f6578697374656e7420746f6b656e000000000000000000000000000000000000602082015250565b6000620009d4602e8362000881565b9150620009e18262000976565b604082019050919050565b6000602082019050818103600083015262000a0781620009c5565b9050919050565b7f4e487b7100000000000000000000000000000000000000000000000000000000600052602260045260246000fd5b6000600282049050600182168062000a5657607f821691505b6020821081141562000a6d5762000a6c62000a0e565b5b50919050565b612bcc8062000a836000396000f3fe608060405234801561001057600080fd5b50600436106100f55760003560e01c806370a0823111610097578063b88d4fde11610066578063b88d4fde14610284578063c87b56dd146102a0578063d0def521146102d0578063e985e9c514610300576100f5565b806370a08231146101fc57806395d89b411461022c578063a22cb4651461024a578063b4a5b64614610266576100f5565b8063095ea7b3116100d3578063095ea7b31461017857806323b872dd1461019457806342842e0e146101b05780636352211e146101cc576100f5565b806301ffc9a7146100fa57806306fdde031461012a578063081812fc14610148575b600080fd5b610114600480360381019061010f919061192e565b610330565b6040516101219190611976565b60405180910390f35b610132610412565b60405161013f9190611a2a565b60405180910390f35b610162600480360381019061015d9190611a82565b6104a4565b60405161016f9190611af0565b60405180910390f35b610192600480360381019061018d9190611b37565b610529565b005b6101ae60048036038101906101a99190611b77565b610641565b005b6101ca60048036038101906101c59190611b77565b6106a1565b005b6101e660048036038101906101e19190611a82565b6106c1565b6040516101f39190611af0565b60405180910390f35b61021660048036038101906102119190611bca565b610773565b6040516102239190611c06565b60405180910390f35b61023461082b565b6040516102419190611a2a565b60405180910390f35b610264600480360381019061025f9190611c4d565b6108bd565b005b61026e610a3e565b60405161027b9190611c06565b60405180910390f35b61029e60048036038101906102999190611dc2565b610a44565b005b6102ba60048036038101906102b59190611a82565b610aa6565b6040516102c79190611a2a565b60405180910390f35b6102ea60048036038101906102e59190611ee6565b610bf8565b6040516102f79190611976565b60405180910390f35b61031a60048036038101906103159190611f42565b610c38565b6040516103279190611976565b60405180910390f35b60007f80ac58cd000000000000000000000000000000000000000000000000000000007bffffffffffffffffffffffffffffffffffffffffffffffffffffffff1916827bffffffffffffffffffffffffffffffffffffffffffffffffffffffff191614806103fb57507f5b5e139f000000000000000000000000000000000000000000000000000000007bffffffffffffffffffffffffffffffffffffffffffffffffffffffff1916827bffffffffffffffffffffffffffffffffffffffffffffffffffffffff1916145b8061040b575061040a82610ccc565b5b9050919050565b60606000805461042190611fb1565b80601f016020809104026020016040519081016040528092919081815260200182805461044d90611fb1565b801561049a5780601f1061046f5761010080835404028352916020019161049a565b820191906000526020600020905b81548152906001019060200180831161047d57829003601f168201915b5050505050905090565b60006104af82610d36565b6104ee576040517f08c379a00000000000000000000000000000000000000000000000000000000081526004016104e590612055565b60405180910390fd5b6004600083815260200190815260200160002060009054906101000a900473ffffffffffffffffffffffffffffffffffffffff169050919050565b6000610534826106c1565b90508073ffffffffffffffffffffffffffffffffffffffff168373ffffffffffffffffffffffffffffffffffffffff1614156105a5576040517f08c379a000000000000000000000000000000000000000000000000000000000815260040161059c906120e7565b60405180910390fd5b8073ffffffffffffffffffffffffffffffffffffffff166105c4610da2565b73ffffffffffffffffffffffffffffffffffffffff1614806105f357506105f2816105ed610da2565b610c38565b5b610632576040517f08c379a000000000000000000000000000000000000000000000000000000000815260040161062990612179565b60405180910390fd5b61063c8383610daa565b505050565b61065261064c610da2565b82610e63565b610691576040517f08c379a00000000000000000000000000000000000000000000000000000000081526004016106889061220b565b60405180910390fd5b61069c838383610f41565b505050565b6106bc83838360405180602001604052806000815250610a44565b505050565b6000806002600084815260200190815260200160002060009054906101000a900473ffffffffffffffffffffffffffffffffffffffff169050600073ffffffffffffffffffffffffffffffffffffffff168173ffffffffffffffffffffffffffffffffffffffff16141561076a576040517f08c379a00000000000000000000000000000000000000000000000000000000081526004016107619061229d565b60405180910390fd5b80915050919050565b60008073ffffffffffffffffffffffffffffffffffffffff168273ffffffffffffffffffffffffffffffffffffffff1614156107e4576040517f08c379a00000000000000000000000000000000000000000000000000000000081526004016107db9061232f565b60405180910390fd5b600360008373ffffffffffffffffffffffffffffffffffffffff1673ffffffffffffffffffffffffffffffffffffffff168152602001908152602001600020549050919050565b60606001805461083a90611fb1565b80601f016020809104026020016040519081016040528092919081815260200182805461086690611fb1565b80156108b35780601f10610888576101008083540402835291602001916108b3565b820191906000526020600020905b81548152906001019060200180831161089657829003601f168201915b5050505050905090565b6108c5610da2565b73ffffffffffffffffffffffffffffffffffffffff168273ffffffffffffffffffffffffffffffffffffffff161415610933576040517f08c379a000000000000000000000000000000000000000000000000000000000815260040161092a9061239b565b60405180910390fd5b8060056000610940610da2565b73ffffffffffffffffffffffffffffffffffffffff1673ffffffffffffffffffffffffffffffffffffffff16815260200190815260200160002060008473ffffffffffffffffffffffffffffffffffffffff1673ffffffffffffffffffffffffffffffffffffffff16815260200190815260200160002060006101000a81548160ff0219169083151502179055508173ffffffffffffffffffffffffffffffffffffffff166109ed610da2565b73ffffffffffffffffffffffffffffffffffffffff167f17307eab39ab6107e8899845ad3d59bd9653f200f220920489ca2b5937696c3183604051610a329190611976565b60405180910390a35050565b60075481565b610a55610a4f610da2565b83610e63565b610a94576040517f08c379a0000000000000000000000000000000000000000000000000000000008152600401610a8b9061220b565b60405180910390fd5b610aa08484848461119d565b50505050565b6060610ab182610d36565b610af0576040517f08c379a0000000000000000000000000000000000000000000000000000000008152600401610ae79061242d565b60405180910390fd5b6000600660008481526020019081526020016000208054610b1090611fb1565b80601f0160208091040260200160405190810160405280929190818152602001828054610b3c90611fb1565b8015610b895780601f10610b5e57610100808354040283529160200191610b89565b820191906000526020600020905b815481529060010190602001808311610b6c57829003601f168201915b505050505090506000610b9a6111f9565b9050600081511415610bb0578192505050610bf3565b600082511115610be5578082604051602001610bcd929190612489565b60405160208183030381529060405292505050610bf3565b610bee84611210565b925050505b919050565b600080610c036112b7565b905060076000815480929190610c18906124dc565b9190505550610c2784826112cd565b610c31818461149b565b5092915050565b6000600560008473ffffffffffffffffffffffffffffffffffffffff1673ffffffffffffffffffffffffffffffffffffffff16815260200190815260200160002060008373ffffffffffffffffffffffffffffffffffffffff1673ffffffffffffffffffffffffffffffffffffffff16815260200190815260200160002060009054906101000a900460ff16905092915050565b60007f01ffc9a7000000000000000000000000000000000000000000000000000000007bffffffffffffffffffffffffffffffffffffffffffffffffffffffff1916827bffffffffffffffffffffffffffffffffffffffffffffffffffffffff1916149050919050565b60008073ffffffffffffffffffffffffffffffffffffffff166002600084815260200190815260200160002060009054906101000a900473ffffffffffffffffffffffffffffffffffffffff1673ffffffffffffffffffffffffffffffffffffffff1614159050919050565b600033905090565b816004600083815260200190815260200160002060006101000a81548173ffffffffffffffffffffffffffffffffffffffff021916908373ffffffffffffffffffffffffffffffffffffffff160217905550808273ffffffffffffffffffffffffffffffffffffffff16610e1d836106c1565b73ffffffffffffffffffffffffffffffffffffffff167f8c5be1e5ebec7d5bd14f71427d1e84f3dd0314c0f7b2291e5b200ac8c7c3b92560405160405180910390a45050565b6000610e6e82610d36565b610ead576040517f08c379a0000000000000000000000000000000000000000000000000000000008152600401610ea490612597565b60405180910390fd5b6000610eb8836106c1565b90508073ffffffffffffffffffffffffffffffffffffffff168473ffffffffffffffffffffffffffffffffffffffff161480610f2757508373ffffffffffffffffffffffffffffffffffffffff16610f0f846104a4565b73ffffffffffffffffffffffffffffffffffffffff16145b80610f385750610f378185610c38565b5b91505092915050565b8273ffffffffffffffffffffffffffffffffffffffff16610f61826106c1565b73ffffffffffffffffffffffffffffffffffffffff1614610fb7576040517f08c379a0000000000000000000000000000000000000000000000000000000008152600401610fae90612629565b60405180910390fd5b600073ffffffffffffffffffffffffffffffffffffffff168273ffffffffffffffffffffffffffffffffffffffff161415611027576040517f08c379a000000000000000000000000000000000000000000000000000000000815260040161101e906126bb565b60405180910390fd5b61103283838361150f565b61103d600082610daa565b6001600360008573ffffffffffffffffffffffffffffffffffffffff1673ffffffffffffffffffffffffffffffffffffffff168152602001908152602001600020600082825461108d91906126db565b925050819055506001600360008473ffffffffffffffffffffffffffffffffffffffff1673ffffffffffffffffffffffffffffffffffffffff16815260200190815260200160002060008282546110e4919061270f565b92505081905550816002600083815260200190815260200160002060006101000a81548173ffffffffffffffffffffffffffffffffffffffff021916908373ffffffffffffffffffffffffffffffffffffffff160217905550808273ffffffffffffffffffffffffffffffffffffffff168473ffffffffffffffffffffffffffffffffffffffff167fddf252ad1be2c89b69c2b068fc378daa952ba7f163c4a11628f55a4df523b3ef60405160405180910390a4505050565b6111a8848484610f41565b6111b484848484611514565b6111f3576040517f08c379a00000000000000000000000000000000000000000000000000000000081526004016111ea906127d7565b60405180910390fd5b50505050565b606060405180602001604052806000815250905090565b606061121b82610d36565b61125a576040517f08c379a000000000000000000000000000000000000000000000000000000000815260040161125190612869565b60405180910390fd5b60006112646111f9565b9050600081511161128457604051806020016040528060008152506112af565b8061128e846116ab565b60405160200161129f929190612489565b6040516020818303038152906040525b915050919050565b600060016007546112c8919061270f565b905090565b600073ffffffffffffffffffffffffffffffffffffffff168273ffffffffffffffffffffffffffffffffffffffff16141561133d576040517f08c379a0000000000000000000000000000000000000000000000000000000008152600401611334906128d5565b60405180910390fd5b61134681610d36565b15611386576040517f08c379a000000000000000000000000000000000000000000000000000000000815260040161137d90612941565b60405180910390fd5b6113926000838361150f565b6001600360008473ffffffffffffffffffffffffffffffffffffffff1673ffffffffffffffffffffffffffffffffffffffff16815260200190815260200160002060008282546113e2919061270f565b92505081905550816002600083815260200190815260200160002060006101000a81548173ffffffffffffffffffffffffffffffffffffffff021916908373ffffffffffffffffffffffffffffffffffffffff160217905550808273ffffffffffffffffffffffffffffffffffffffff16600073ffffffffffffffffffffffffffffffffffffffff167fddf252ad1be2c89b69c2b068fc378daa952ba7f163c4a11628f55a4df523b3ef60405160405180910390a45050565b6114a482610d36565b6114e3576040517f08c379a00000000000000000000000000000000000000000000000000000000081526004016114da906129d3565b60405180910390fd5b8060066000848152602001908152602001600020908051906020019061150a92919061181f565b505050565b505050565b60006115358473ffffffffffffffffffffffffffffffffffffffff1661180c565b1561169e578373ffffffffffffffffffffffffffffffffffffffff1663150b7a0261155e610da2565b8786866040518563ffffffff1660e01b81526004016115809493929190612a48565b602060405180830381600087803b15801561159a57600080fd5b505af19250505080156115cb57506040513d601f19601f820116820180604052508101906115c89190612aa9565b60015b61164e573d80600081146115fb576040519150601f19603f3d011682016040523d82523d6000602084013e611600565b606091505b50600081511415611646576040517f08c379a000000000000000000000000000000000000000000000000000000000815260040161163d906127d7565b60405180910390fd5b805181602001fd5b63150b7a0260e01b7bffffffffffffffffffffffffffffffffffffffffffffffffffffffff1916817bffffffffffffffffffffffffffffffffffffffffffffffffffffffff1916149150506116a3565b600190505b949350505050565b606060008214156116f3576040518060400160405280600181526020017f30000000000000000000000000000000000000000000000000000000000000008152509050611807565b600082905060005b6000821461172557808061170e906124dc565b915050600a8261171e9190612b05565b91506116fb565b60008167ffffffffffffffff81111561174157611740611c97565b5b6040519080825280601f01601f1916602001820160405280156117735781602001600182028036833780820191505090505b5090505b600085146118005760018261178c91906126db565b9150600a8561179b9190612b36565b60306117a7919061270f565b60f81b8183815181106117bd576117bc612b67565b5b60200101907effffffffffffffffffffffffffffffffffffffffffffffffffffffffffffff1916908160001a905350600a856117f99190612b05565b9450611777565b8093505050505b919050565b600080823b905060008111915050919050565b82805461182b90611fb1565b90600052602060002090601f01602090048101928261184d5760008555611894565b82601f1061186657805160ff1916838001178555611894565b82800160010185558215611894579182015b82811115611893578251825591602001919060010190611878565b5b5090506118a191906118a5565b5090565b5b808211156118be5760008160009055506001016118a6565b5090565b6000604051905090565b600080fd5b600080fd5b60007fffffffff0000000000000000000000000000000000000000000000000000000082169050919050565b61190b816118d6565b811461191657600080fd5b50565b60008135905061192881611902565b92915050565b600060208284031215611944576119436118cc565b5b600061195284828501611919565b91505092915050565b60008115159050919050565b6119708161195b565b82525050565b600060208201905061198b6000830184611967565b92915050565b600081519050919050565b600082825260208201905092915050565b60005b838110156119cb5780820151818401526020810190506119b0565b838111156119da576000848401525b50505050565b6000601f19601f8301169050919050565b60006119fc82611991565b611a06818561199c565b9350611a168185602086016119ad565b611a1f816119e0565b840191505092915050565b60006020820190508181036000830152611a4481846119f1565b905092915050565b6000819050919050565b611a5f81611a4c565b8114611a6a57600080fd5b50565b600081359050611a7c81611a56565b92915050565b600060208284031215611a9857611a976118cc565b5b6000611aa684828501611a6d565b91505092915050565b600073ffffffffffffffffffffffffffffffffffffffff82169050919050565b6000611ada82611aaf565b9050919050565b611aea81611acf565b82525050565b6000602082019050611b056000830184611ae1565b92915050565b611b1481611acf565b8114611b1f57600080fd5b50565b600081359050611b3181611b0b565b92915050565b60008060408385031215611b4e57611b4d6118cc565b5b6000611b5c85828601611b22565b9250506020611b6d85828601611a6d565b9150509250929050565b600080600060608486031215611b9057611b8f6118cc565b5b6000611b9e86828701611b22565b9350506020611baf86828701611b22565b9250506040611bc086828701611a6d565b9150509250925092565b600060208284031215611be057611bdf6118cc565b5b6000611bee84828501611b22565b91505092915050565b611c0081611a4c565b82525050565b6000602082019050611c1b6000830184611bf7565b92915050565b611c2a8161195b565b8114611c3557600080fd5b50565b600081359050611c4781611c21565b92915050565b60008060408385031215611c6457611c636118cc565b5b6000611c7285828601611b22565b9250506020611c8385828601611c38565b9150509250929050565b600080fd5b600080fd5b7f4e487b7100000000000000000000000000000000000000000000000000000000600052604160045260246000fd5b611ccf826119e0565b810181811067ffffffffffffffff82111715611cee57611ced611c97565b5b80604052505050565b6000611d016118c2565b9050611d0d8282611cc6565b919050565b600067ffffffffffffffff821115611d2d57611d2c611c97565b5b611d36826119e0565b9050602081019050919050565b82818337600083830152505050565b6000611d65611d6084611d12565b611cf7565b905082815260208101848484011115611d8157611d80611c92565b5b611d8c848285611d43565b509392505050565b600082601f830112611da957611da8611c8d565b5b8135611db9848260208601611d52565b91505092915050565b60008060008060808587031215611ddc57611ddb6118cc565b5b6000611dea87828801611b22565b9450506020611dfb87828801611b22565b9350506040611e0c87828801611a6d565b925050606085013567ffffffffffffffff811115611e2d57611e2c6118d1565b5b611e3987828801611d94565b91505092959194509250565b600067ffffffffffffffff821115611e6057611e5f611c97565b5b611e69826119e0565b9050602081019050919050565b6000611e89611e8484611e45565b611cf7565b905082815260208101848484011115611ea557611ea4611c92565b5b611eb0848285611d43565b509392505050565b600082601f830112611ecd57611ecc611c8d565b5b8135611edd848260208601611e76565b91505092915050565b60008060408385031215611efd57611efc6118cc565b5b6000611f0b85828601611b22565b925050602083013567ffffffffffffffff811115611f2c57611f2b6118d1565b5b611f3885828601611eb8565b9150509250929050565b60008060408385031215611f5957611f586118cc565b5b6000611f6785828601611b22565b9250506020611f7885828601611b22565b9150509250929050565b7f4e487b7100000000000000000000000000000000000000000000000000000000600052602260045260246000fd5b60006002820490506001821680611fc957607f821691505b60208210811415611fdd57611fdc611f82565b5b50919050565b7f4552433732313a20617070726f76656420717565727920666f72206e6f6e657860008201527f697374656e7420746f6b656e0000000000000000000000000000000000000000602082015250565b600061203f602c8361199c565b915061204a82611fe3565b604082019050919050565b6000602082019050818103600083015261206e81612032565b9050919050565b7f4552433732313a20617070726f76616c20746f2063757272656e74206f776e6560008201527f7200000000000000000000000000000000000000000000000000000000000000602082015250565b60006120d160218361199c565b91506120dc82612075565b604082019050919050565b60006020820190508181036000830152612100816120c4565b9050919050565b7f4552433732313a20617070726f76652063616c6c6572206973206e6f74206f7760008201527f6e6572206e6f7220617070726f76656420666f7220616c6c0000000000000000602082015250565b600061216360388361199c565b915061216e82612107565b604082019050919050565b6000602082019050818103600083015261219281612156565b9050919050565b7f4552433732313a207472616e736665722063616c6c6572206973206e6f74206f60008201527f776e6572206e6f7220617070726f766564000000000000000000000000000000602082015250565b60006121f560318361199c565b915061220082612199565b604082019050919050565b60006020820190508181036000830152612224816121e8565b9050919050565b7f4552433732313a206f776e657220717565727920666f72206e6f6e657869737460008201527f656e7420746f6b656e0000000000000000000000000000000000000000000000602082015250565b600061228760298361199c565b91506122928261222b565b604082019050919050565b600060208201905081810360008301526122b68161227a565b9050919050565b7f4552433732313a2062616c616e636520717565727920666f7220746865207a6560008201527f726f206164647265737300000000000000000000000000000000000000000000602082015250565b6000612319602a8361199c565b9150612324826122bd565b604082019050919050565b600060208201905081810360008301526123488161230c565b9050919050565b7f4552433732313a20617070726f766520746f2063616c6c657200000000000000600082015250565b600061238560198361199c565b91506123908261234f565b602082019050919050565b600060208201905081810360008301526123b481612378565b9050919050565b7f45524337323155524953746f726167653a2055524920717565727920666f722060008201527f6e6f6e6578697374656e7420746f6b656e000000000000000000000000000000602082015250565b600061241760318361199c565b9150612422826123bb565b604082019050919050565b600060208201905081810360008301526124468161240a565b9050919050565b600081905092915050565b600061246382611991565b61246d818561244d565b935061247d8185602086016119ad565b80840191505092915050565b60006124958285612458565b91506124a18284612458565b91508190509392505050565b7f4e487b7100000000000000000000000000000000000000000000000000000000600052601160045260246000fd5b60006124e782611a4c565b91507fffffffffffffffffffffffffffffffffffffffffffffffffffffffffffffffff82141561251a576125196124ad565b5b600182019050919050565b7f4552433732313a206f70657261746f7220717565727920666f72206e6f6e657860008201527f697374656e7420746f6b656e0000000000000000000000000000000000000000602082015250565b6000612581602c8361199c565b915061258c82612525565b604082019050919050565b600060208201905081810360008301526125b081612574565b9050919050565b7f4552433732313a207472616e73666572206f6620746f6b656e2074686174206960008201527f73206e6f74206f776e0000000000000000000000000000000000000000000000602082015250565b600061261360298361199c565b915061261e826125b7565b604082019050919050565b6000602082019050818103600083015261264281612606565b9050919050565b7f4552433732313a207472616e7366657220746f20746865207a65726f2061646460008201527f7265737300000000000000000000000000000000000000000000000000000000602082015250565b60006126a560248361199c565b91506126b082612649565b604082019050919050565b600060208201905081810360008301526126d481612698565b9050919050565b60006126e682611a4c565b91506126f183611a4c565b925082821015612704576127036124ad565b5b828203905092915050565b600061271a82611a4c565b915061272583611a4c565b9250827fffffffffffffffffffffffffffffffffffffffffffffffffffffffffffffffff0382111561275a576127596124ad565b5b828201905092915050565b7f4552433732313a207472616e7366657220746f206e6f6e20455243373231526560008201527f63656976657220696d706c656d656e7465720000000000000000000000000000602082015250565b60006127c160328361199c565b91506127cc82612765565b604082019050919050565b600060208201905081810360008301526127f0816127b4565b9050919050565b7f4552433732314d657461646174613a2055524920717565727920666f72206e6f60008201527f6e6578697374656e7420746f6b656e0000000000000000000000000000000000602082015250565b6000612853602f8361199c565b915061285e826127f7565b604082019050919050565b6000602082019050818103600083015261288281612846565b9050919050565b7f4552433732313a206d696e7420746f20746865207a65726f2061646472657373600082015250565b60006128bf60208361199c565b91506128ca82612889565b602082019050919050565b600060208201905081810360008301526128ee816128b2565b9050919050565b7f4552433732313a20746f6b656e20616c7265616479206d696e74656400000000600082015250565b600061292b601c8361199c565b9150612936826128f5565b602082019050919050565b6000602082019050818103600083015261295a8161291e565b9050919050565b7f45524337323155524953746f726167653a2055524920736574206f66206e6f6e60008201527f6578697374656e7420746f6b656e000000000000000000000000000000000000602082015250565b60006129bd602e8361199c565b91506129c882612961565b604082019050919050565b600060208201905081810360008301526129ec816129b0565b9050919050565b600081519050919050565b600082825260208201905092915050565b6000612a1a826129f3565b612a2481856129fe565b9350612a348185602086016119ad565b612a3d816119e0565b840191505092915050565b6000608082019050612a5d6000830187611ae1565b612a6a6020830186611ae1565b612a776040830185611bf7565b8181036060830152612a898184612a0f565b905095945050505050565b600081519050612aa381611902565b92915050565b600060208284031215612abf57612abe6118cc565b5b6000612acd84828501612a94565b91505092915050565b7f4e487b7100000000000000000000000000000000000000000000000000000000600052601260045260246000fd5b6000612b1082611a4c565b9150612b1b83611a4c565b925082612b2b57612b2a612ad6565b5b828204905092915050565b6000612b4182611a4c565b9150612b4c83611a4c565b925082612b5c57612b5b612ad6565b5b828206905092915050565b7f4e487b7100000000000000000000000000000000000000000000000000000000600052603260045260246000fdfea2646970667358221220d4319e88b29a73d49a0bcb1727fc7b646e8f620bb5d686d94f68dbcee75f8fa764736f6c63430008090033a2646970667358221220569c112e40894f5401408ed4cf604f10aa10ee5af8f707a2e66448d534ad186064736f6c63430008090033",
  "immutableReferences": {},
  "source": "// SPDX-License-Identifier: MIT\r\npragma solidity ^0.8.0;\r\npragma experimental ABIEncoderV2;\r\n\r\nimport { Strings } from \"./libraries/Strings.sol\";\r\nimport { PhotoNFTFactoryStorages } from \"./photo-nft-factory/commons/PhotoNFTFactoryStorages.sol\";\r\nimport { PhotoNFT } from \"./PhotoNFT.sol\";\r\nimport { PhotoNFTMarketplace } from \"./PhotoNFTMarketplace.sol\";\r\nimport { PhotoNFTData } from \"./PhotoNFTData.sol\";\r\n\r\n\r\n/**\r\n * @notice - This is the factory contract for a NFT of photo\r\n */\r\ncontract PhotoNFTFactory is PhotoNFTFactoryStorages {\r\n    using Strings for string;    \r\n\r\n    address[] public photoAddresses;\r\n    address PHOTO_NFT_MARKETPLACE;\r\n\r\n    PhotoNFTMarketplace public photoNFTMarketplace;\r\n    PhotoNFTData public photoNFTData;\r\n\r\n    constructor(PhotoNFTMarketplace _photoNFTMarketplace, PhotoNFTData _photoNFTData) public {\r\n        photoNFTMarketplace = _photoNFTMarketplace;\r\n        photoNFTData = _photoNFTData;\r\n        PHOTO_NFT_MARKETPLACE = address(photoNFTMarketplace);\r\n    }\r\n\r\n    /**\r\n     * @notice - Create a new photoNFT when a seller (owner) upload a photo onto IPFS\r\n     */\r\n    function createNewPhotoNFT(string memory nftName, string memory nftSymbol, uint photoPrice, string memory ipfsHashOfPhoto) public returns (bool) {\r\n        address owner = msg.sender;  // [Note]: Initial owner of photoNFT is msg.sender\r\n        string memory tokenURI = getTokenURI(ipfsHashOfPhoto);  // [Note]: IPFS hash + URL\r\n        PhotoNFT photoNFT = new PhotoNFT(owner, nftName, nftSymbol, tokenURI, photoPrice);\r\n        photoAddresses.push(address(photoNFT));\r\n\r\n        // Save metadata of a photoNFT created\r\n        photoNFTData.saveMetadataOfPhotoNFT(photoAddresses, photoNFT, nftName, nftSymbol, msg.sender, photoPrice, ipfsHashOfPhoto);\r\n        photoNFTData.updateStatus(photoNFT, \"Open\");\r\n\r\n        emit PhotoNFTCreated(msg.sender, photoNFT, nftName, nftSymbol, photoPrice, ipfsHashOfPhoto);\r\n    }\r\n\r\n\r\n    ///-----------------\r\n    /// Getter methods\r\n    ///-----------------\r\n    function baseTokenURI() public pure returns (string memory) {\r\n        return \"https://ipfs.io/ipfs/\";\r\n    }\r\n\r\n    function getTokenURI(string memory _ipfsHashOfPhoto) public view returns (string memory) {\r\n        return Strings.strConcat(baseTokenURI(), _ipfsHashOfPhoto);\r\n    }\r\n\r\n}\r\n",
  "sourcePath": "C:\\testing\\NFT-marketplace\\contracts\\PhotoNFTFactory.sol",
  "compiler": {
    "name": "solc",
    "version": "0.8.9+commit.e5eed63a.Emscripten.clang"
  },
  "schemaVersion": "3.4.3",
  "updatedAt": "2021-10-16T13:22:06.142Z",
  "networkType": "ethereum",
  "devdoc": {
    "kind": "dev",
    "methods": {},
    "version": 1
  },
  "userdoc": {
    "kind": "user",
    "methods": {
      "baseTokenURI()": {
        "notice": "----------------- Getter methods -----------------"
      },
      "createNewPhotoNFT(string,string,uint256,string)": {
        "notice": "- Create a new photoNFT when a seller (owner) upload a photo onto IPFS"
      }
    },
    "notice": "- This is the factory contract for a NFT of photo",
    "version": 1
  }
}