{
  "contractName": "PhotoNFTDataStorages",
  "abi": [
    {
      "inputs": [
        {
          "internalType": "uint256",
          "name": "",
          "type": "uint256"
        }
      ],
      "name": "photos",
      "outputs": [
        {
          "internalType": "contract PhotoNFT",
          "name": "photoNFT",
          "type": "address"
        },
        {
          "internalType": "string",
          "name": "photoNFTName",
          "type": "string"
        },
        {
          "internalType": "string",
          "name": "photoNFTSymbol",
          "type": "string"
        },
        {
          "internalType": "address",
          "name": "ownerAddress",
          "type": "address"
        },
        {
          "internalType": "uint256",
          "name": "photoPrice",
          "type": "uint256"
        },
        {
          "internalType": "string",
          "name": "ipfsHashOfPhoto",
          "type": "string"
        },
        {
          "internalType": "string",
          "name": "status",
          "type": "string"
        },
        {
          "internalType": "uint256",
          "name": "reputation",
          "type": "uint256"
        },
        {
          "internalType": "bool",
          "name": "premiumStatus",
          "type": "bool"
        }
      ],
      "stateMutability": "view",
      "type": "function"
    }
  ],
  "bytecode": "0x608060405234801561001057600080fd5b5061063e806100206000396000f3fe608060405234801561001057600080fd5b506004361061002b5760003560e01c8063af2a5d6f14610030575b600080fd5b61004a6004803603810190610045919061036e565b610068565b60405161005f999897969594939291906104fe565b60405180910390f35b6000818154811061007857600080fd5b90600052602060002090600902016000915090508060000160009054906101000a900473ffffffffffffffffffffffffffffffffffffffff16908060010180546100c1906105d6565b80601f01602080910402602001604051908101604052809291908181526020018280546100ed906105d6565b801561013a5780601f1061010f5761010080835404028352916020019161013a565b820191906000526020600020905b81548152906001019060200180831161011d57829003601f168201915b50505050509080600201805461014f906105d6565b80601f016020809104026020016040519081016040528092919081815260200182805461017b906105d6565b80156101c85780601f1061019d576101008083540402835291602001916101c8565b820191906000526020600020905b8154815290600101906020018083116101ab57829003601f168201915b5050505050908060030160009054906101000a900473ffffffffffffffffffffffffffffffffffffffff1690806004015490806005018054610209906105d6565b80601f0160208091040260200160405190810160405280929190818152602001828054610235906105d6565b80156102825780601f1061025757610100808354040283529160200191610282565b820191906000526020600020905b81548152906001019060200180831161026557829003601f168201915b505050505090806006018054610297906105d6565b80601f01602080910402602001604051908101604052809291908181526020018280546102c3906105d6565b80156103105780601f106102e557610100808354040283529160200191610310565b820191906000526020600020905b8154815290600101906020018083116102f357829003601f168201915b5050505050908060070154908060080160009054906101000a900460ff16905089565b600080fd5b6000819050919050565b61034b81610338565b811461035657600080fd5b50565b60008135905061036881610342565b92915050565b60006020828403121561038457610383610333565b5b600061039284828501610359565b91505092915050565b600073ffffffffffffffffffffffffffffffffffffffff82169050919050565b6000819050919050565b60006103e06103db6103d68461039b565b6103bb565b61039b565b9050919050565b60006103f2826103c5565b9050919050565b6000610404826103e7565b9050919050565b610414816103f9565b82525050565b600081519050919050565b600082825260208201905092915050565b60005b83811015610454578082015181840152602081019050610439565b83811115610463576000848401525b50505050565b6000601f19601f8301169050919050565b60006104858261041a565b61048f8185610425565b935061049f818560208601610436565b6104a881610469565b840191505092915050565b60006104be8261039b565b9050919050565b6104ce816104b3565b82525050565b6104dd81610338565b82525050565b60008115159050919050565b6104f8816104e3565b82525050565b600061012082019050610514600083018c61040b565b8181036020830152610526818b61047a565b9050818103604083015261053a818a61047a565b905061054960608301896104c5565b61055660808301886104d4565b81810360a0830152610568818761047a565b905081810360c083015261057c818661047a565b905061058b60e08301856104d4565b6105996101008301846104ef565b9a9950505050505050505050565b7f4e487b7100000000000000000000000000000000000000000000000000000000600052602260045260246000fd5b600060028204905060018216806105ee57607f821691505b60208210811415610602576106016105a7565b5b5091905056fea26469706673582212201379b3e1c531d888e29a81a807edcd50440266cc58f2bf0ff623adfe254cb00b64736f6c63430008090033",
  "immutableReferences": {},
  "source": "pragma solidity ^0.8.0;\r\n\r\nimport { PhotoNFTDataObjects } from \"./PhotoNFTDataObjects.sol\";\r\n\r\n\r\n// shared storage\r\ncontract PhotoNFTDataStorages is PhotoNFTDataObjects {\r\n\r\n    Photo[] public photos;\r\n\r\n}\r\n\r\n",
  "sourcePath": "C:\\testing\\NFT-marketplace\\contracts\\photo-nft-data\\commons\\PhotoNFTDataStorages.sol",
  "compiler": {
    "name": "solc",
    "version": "0.8.9+commit.e5eed63a.Emscripten.clang"
  },
  "schemaVersion": "3.4.3",
  "updatedAt": "2021-10-16T13:16:48.803Z",
  "devdoc": {
    "kind": "dev",
    "methods": {},
    "version": 1
  },
  "userdoc": {
    "kind": "user",
    "methods": {},
    "version": 1
  }
}