{
  "contractName": "PhotoNFTData",
  "abi": [
    {
      "inputs": [],
      "stateMutability": "nonpayable",
      "type": "constructor"
    },
    {
      "inputs": [
        {
          "internalType": "uint256",
          "name": "",
          "type": "uint256"
        }
      ],
      "name": "photoAddresses",
      "outputs": [
        {
          "internalType": "address",
          "name": "",
          "type": "address"
        }
      ],
      "stateMutability": "view",
      "type": "function",
      "constant": true
    },
    {
      "inputs": [
        {
          "internalType": "uint256",
          "name": "",
          "type": "uint256"
        }
      ],
      "name": "photos",
      "outputs": [
        {
          "internalType": "contract PhotoNFT",
          "name": "photoNFT",
          "type": "address"
        },
        {
          "internalType": "string",
          "name": "photoNFTName",
          "type": "string"
        },
        {
          "internalType": "string",
          "name": "photoNFTSymbol",
          "type": "string"
        },
        {
          "internalType": "address",
          "name": "ownerAddress",
          "type": "address"
        },
        {
          "internalType": "uint256",
          "name": "photoPrice",
          "type": "uint256"
        },
        {
          "internalType": "string",
          "name": "ipfsHashOfPhoto",
          "type": "string"
        },
        {
          "internalType": "string",
          "name": "status",
          "type": "string"
        },
        {
          "internalType": "uint256",
          "name": "reputation",
          "type": "uint256"
        },
        {
          "internalType": "bool",
          "name": "premiumStatus",
          "type": "bool"
        }
      ],
      "stateMutability": "view",
      "type": "function",
      "constant": true
    },
    {
      "inputs": [
        {
          "internalType": "address[]",
          "name": "_photoAddresses",
          "type": "address[]"
        },
        {
          "internalType": "contract PhotoNFT",
          "name": "_photoNFT",
          "type": "address"
        },
        {
          "internalType": "string",
          "name": "_photoNFTName",
          "type": "string"
        },
        {
          "internalType": "string",
          "name": "_photoNFTSymbol",
          "type": "string"
        },
        {
          "internalType": "address",
          "name": "_ownerAddress",
          "type": "address"
        },
        {
          "internalType": "uint256",
          "name": "_photoPrice",
          "type": "uint256"
        },
        {
          "internalType": "string",
          "name": "_ipfsHashOfPhoto",
          "type": "string"
        }
      ],
      "name": "saveMetadataOfPhotoNFT",
      "outputs": [
        {
          "internalType": "bool",
          "name": "",
          "type": "bool"
        }
      ],
      "stateMutability": "nonpayable",
      "type": "function"
    },
    {
      "inputs": [
        {
          "internalType": "contract PhotoNFT",
          "name": "_photoNFT",
          "type": "address"
        },
        {
          "internalType": "address",
          "name": "_newOwner",
          "type": "address"
        }
      ],
      "name": "updateOwnerOfPhotoNFT",
      "outputs": [
        {
          "internalType": "bool",
          "name": "",
          "type": "bool"
        }
      ],
      "stateMutability": "nonpayable",
      "type": "function"
    },
    {
      "inputs": [
        {
          "internalType": "contract PhotoNFT",
          "name": "_photoNFT",
          "type": "address"
        },
        {
          "internalType": "string",
          "name": "_newStatus",
          "type": "string"
        }
      ],
      "name": "updateStatus",
      "outputs": [
        {
          "internalType": "bool",
          "name": "",
          "type": "bool"
        }
      ],
      "stateMutability": "nonpayable",
      "type": "function"
    },
    {
      "inputs": [
        {
          "internalType": "contract PhotoNFT",
          "name": "_photoNFT",
          "type": "address"
        },
        {
          "internalType": "bool",
          "name": "_newStatus",
          "type": "bool"
        }
      ],
      "name": "updatePremiumStatus",
      "outputs": [
        {
          "internalType": "bool",
          "name": "",
          "type": "bool"
        }
      ],
      "stateMutability": "nonpayable",
      "type": "function"
    },
    {
      "inputs": [
        {
          "internalType": "uint256",
          "name": "index",
          "type": "uint256"
        }
      ],
      "name": "getPhoto",
      "outputs": [
        {
          "components": [
            {
              "internalType": "contract PhotoNFT",
              "name": "photoNFT",
              "type": "address"
            },
            {
              "internalType": "string",
              "name": "photoNFTName",
              "type": "string"
            },
            {
              "internalType": "string",
              "name": "photoNFTSymbol",
              "type": "string"
            },
            {
              "internalType": "address",
              "name": "ownerAddress",
              "type": "address"
            },
            {
              "internalType": "uint256",
              "name": "photoPrice",
              "type": "uint256"
            },
            {
              "internalType": "string",
              "name": "ipfsHashOfPhoto",
              "type": "string"
            },
            {
              "internalType": "string",
              "name": "status",
              "type": "string"
            },
            {
              "internalType": "uint256",
              "name": "reputation",
              "type": "uint256"
            },
            {
              "internalType": "bool",
              "name": "premiumStatus",
              "type": "bool"
            }
          ],
          "internalType": "struct PhotoNFTDataObjects.Photo",
          "name": "_photo",
          "type": "tuple"
        }
      ],
      "stateMutability": "view",
      "type": "function",
      "constant": true
    },
    {
      "inputs": [
        {
          "internalType": "contract PhotoNFT",
          "name": "photoNFT",
          "type": "address"
        }
      ],
      "name": "getPhotoIndex",
      "outputs": [
        {
          "internalType": "uint256",
          "name": "_photoIndex",
          "type": "uint256"
        }
      ],
      "stateMutability": "view",
      "type": "function",
      "constant": true
    },
    {
      "inputs": [
        {
          "internalType": "contract PhotoNFT",
          "name": "photoNFT",
          "type": "address"
        }
      ],
      "name": "getPhotoByNFTAddress",
      "outputs": [
        {
          "components": [
            {
              "internalType": "contract PhotoNFT",
              "name": "photoNFT",
              "type": "address"
            },
            {
              "internalType": "string",
              "name": "photoNFTName",
              "type": "string"
            },
            {
              "internalType": "string",
              "name": "photoNFTSymbol",
              "type": "string"
            },
            {
              "internalType": "address",
              "name": "ownerAddress",
              "type": "address"
            },
            {
              "internalType": "uint256",
              "name": "photoPrice",
              "type": "uint256"
            },
            {
              "internalType": "string",
              "name": "ipfsHashOfPhoto",
              "type": "string"
            },
            {
              "internalType": "string",
              "name": "status",
              "type": "string"
            },
            {
              "internalType": "uint256",
              "name": "reputation",
              "type": "uint256"
            },
            {
              "internalType": "bool",
              "name": "premiumStatus",
              "type": "bool"
            }
          ],
          "internalType": "struct PhotoNFTDataObjects.Photo",
          "name": "_photo",
          "type": "tuple"
        }
      ],
      "stateMutability": "view",
      "type": "function",
      "constant": true
    },
    {
      "inputs": [],
      "name": "getAllPhotos",
      "outputs": [
        {
          "components": [
            {
              "internalType": "contract PhotoNFT",
              "name": "photoNFT",
              "type": "address"
            },
            {
              "internalType": "string",
              "name": "photoNFTName",
              "type": "string"
            },
            {
              "internalType": "string",
              "name": "photoNFTSymbol",
              "type": "string"
            },
            {
              "internalType": "address",
              "name": "ownerAddress",
              "type": "address"
            },
            {
              "internalType": "uint256",
              "name": "photoPrice",
              "type": "uint256"
            },
            {
              "internalType": "string",
              "name": "ipfsHashOfPhoto",
              "type": "string"
            },
            {
              "internalType": "string",
              "name": "status",
              "type": "string"
            },
            {
              "internalType": "uint256",
              "name": "reputation",
              "type": "uint256"
            },
            {
              "internalType": "bool",
              "name": "premiumStatus",
              "type": "bool"
            }
          ],
          "internalType": "struct PhotoNFTDataObjects.Photo[]",
          "name": "_photos",
          "type": "tuple[]"
        }
      ],
      "stateMutability": "view",
      "type": "function",
      "constant": true
    }
  ],
  "bytecode": "0x608060405234801561001057600080fd5b50612329806100206000396000f3fe608060405234801561001057600080fd5b506004361061009e5760003560e01c80639bab7f4a116100665780639bab7f4a14610181578063af2a5d6f146101b1578063b6be128a146101e9578063c4d55c6814610219578063dc0985c3146102495761009e565b80630633d553146100a35780631f4342be146100d357806348c31171146101035780637cb1479b146101215780637fd6c40514610151575b600080fd5b6100bd60048036038101906100b8919061198b565b610279565b6040516100ca9190611ab8565b60405180910390f35b6100ed60048036038101906100e89190611ad3565b6104ab565b6040516100fa9190611b0f565b60405180910390f35b61010b61055a565b6040516101189190611dda565b60405180910390f35b61013b60048036038101906101369190611dfc565b6108dd565b6040516101489190611ab8565b60405180910390f35b61016b60048036038101906101669190611ad3565b6109cb565b6040516101789190611f16565b60405180910390f35b61019b60048036038101906101969190611f38565b610dd6565b6040516101a89190611ab8565b60405180910390f35b6101cb60048036038101906101c69190611f94565b610e2a565b6040516101e099989796959493929190612029565b60405180910390f35b61020360048036038101906101fe9190611f94565b6110f5565b6040516102109190611f16565b60405180910390f35b610233600480360381019061022e91906120fe565b61145a565b6040516102409190611ab8565b60405180910390f35b610263600480360381019061025e9190611f94565b6114b1565b604051610270919061213e565b60405180910390f35b6000806040518061012001604052808973ffffffffffffffffffffffffffffffffffffffff1681526020018881526020018781526020018673ffffffffffffffffffffffffffffffffffffffff1681526020018581526020018481526020016040518060400160405280600481526020017f4f70656e00000000000000000000000000000000000000000000000000000000815250815260200160008152602001600015158152509050600081908060018154018082558091505060019003906000526020600020906009020160009091909190915060008201518160000160006101000a81548173ffffffffffffffffffffffffffffffffffffffff021916908373ffffffffffffffffffffffffffffffffffffffff16021790555060208201518160010190805190602001906103b29291906114f0565b5060408201518160020190805190602001906103cf9291906114f0565b5060608201518160030160006101000a81548173ffffffffffffffffffffffffffffffffffffffff021916908373ffffffffffffffffffffffffffffffffffffffff1602179055506080820151816004015560a082015181600501908051906020019061043d9291906114f0565b5060c082015181600601908051906020019061045a9291906114f0565b5060e082015181600701556101008201518160080160006101000a81548160ff0219169083151502179055505050886001908051906020019061049e929190611576565b5050979650505050505050565b600080829050600080600090505b60018054905081101561054f578273ffffffffffffffffffffffffffffffffffffffff16600182815481106104f1576104f0612159565b5b9060005260206000200160009054906101000a900473ffffffffffffffffffffffffffffffffffffffff1673ffffffffffffffffffffffffffffffffffffffff16141561053c578091505b8080610547906121b7565b9150506104b9565b508092505050919050565b60606000805480602002602001604051908101604052809291908181526020016000905b828210156108d45783829060005260206000209060090201604051806101200160405290816000820160009054906101000a900473ffffffffffffffffffffffffffffffffffffffff1673ffffffffffffffffffffffffffffffffffffffff1673ffffffffffffffffffffffffffffffffffffffff1681526020016001820180546106089061222f565b80601f01602080910402602001604051908101604052809291908181526020018280546106349061222f565b80156106815780601f1061065657610100808354040283529160200191610681565b820191906000526020600020905b81548152906001019060200180831161066457829003601f168201915b5050505050815260200160028201805461069a9061222f565b80601f01602080910402602001604051908101604052809291908181526020018280546106c69061222f565b80156107135780601f106106e857610100808354040283529160200191610713565b820191906000526020600020905b8154815290600101906020018083116106f657829003601f168201915b505050505081526020016003820160009054906101000a900473ffffffffffffffffffffffffffffffffffffffff1673ffffffffffffffffffffffffffffffffffffffff1673ffffffffffffffffffffffffffffffffffffffff1681526020016004820154815260200160058201805461078c9061222f565b80601f01602080910402602001604051908101604052809291908181526020018280546107b89061222f565b80156108055780601f106107da57610100808354040283529160200191610805565b820191906000526020600020905b8154815290600101906020018083116107e857829003601f168201915b5050505050815260200160068201805461081e9061222f565b80601f016020809104026020016040519081016040528092919081815260200182805461084a9061222f565b80156108975780601f1061086c57610100808354040283529160200191610897565b820191906000526020600020905b81548152906001019060200180831161087a57829003601f168201915b50505050508152602001600782015481526020016008820160009054906101000a900460ff1615151515815250508152602001906001019061057e565b50505050905090565b6000806108e9846104ab565b90506000808281548110610900576108ff612159565b5b90600052602060002090600902019050600073ffffffffffffffffffffffffffffffffffffffff168473ffffffffffffffffffffffffffffffffffffffff161415610980576040517f08c379a0000000000000000000000000000000000000000000000000000000008152600401610977906122d3565b60405180910390fd5b838160030160006101000a81548173ffffffffffffffffffffffffffffffffffffffff021916908373ffffffffffffffffffffffffffffffffffffffff160217905550505092915050565b6109d3611600565b6000829050600080600090505b600180549050811015610a76578273ffffffffffffffffffffffffffffffffffffffff1660018281548110610a1857610a17612159565b5b9060005260206000200160009054906101000a900473ffffffffffffffffffffffffffffffffffffffff1673ffffffffffffffffffffffffffffffffffffffff161415610a63578091505b8080610a6e906121b7565b9150506109e0565b506000808281548110610a8c57610a8b612159565b5b9060005260206000209060090201604051806101200160405290816000820160009054906101000a900473ffffffffffffffffffffffffffffffffffffffff1673ffffffffffffffffffffffffffffffffffffffff1673ffffffffffffffffffffffffffffffffffffffff168152602001600182018054610b0c9061222f565b80601f0160208091040260200160405190810160405280929190818152602001828054610b389061222f565b8015610b855780601f10610b5a57610100808354040283529160200191610b85565b820191906000526020600020905b815481529060010190602001808311610b6857829003601f168201915b50505050508152602001600282018054610b9e9061222f565b80601f0160208091040260200160405190810160405280929190818152602001828054610bca9061222f565b8015610c175780601f10610bec57610100808354040283529160200191610c17565b820191906000526020600020905b815481529060010190602001808311610bfa57829003601f168201915b505050505081526020016003820160009054906101000a900473ffffffffffffffffffffffffffffffffffffffff1673ffffffffffffffffffffffffffffffffffffffff1673ffffffffffffffffffffffffffffffffffffffff16815260200160048201548152602001600582018054610c909061222f565b80601f0160208091040260200160405190810160405280929190818152602001828054610cbc9061222f565b8015610d095780601f10610cde57610100808354040283529160200191610d09565b820191906000526020600020905b815481529060010190602001808311610cec57829003601f168201915b50505050508152602001600682018054610d229061222f565b80601f0160208091040260200160405190810160405280929190818152602001828054610d4e9061222f565b8015610d9b5780601f10610d7057610100808354040283529160200191610d9b565b820191906000526020600020905b815481529060010190602001808311610d7e57829003601f168201915b50505050508152602001600782015481526020016008820160009054906101000a900460ff1615151515815250509050809350505050919050565b600080610de2846104ab565b90506000808281548110610df957610df8612159565b5b9060005260206000209060090201905083816006019080519060200190610e219291906114f0565b50505092915050565b60008181548110610e3a57600080fd5b90600052602060002090600902016000915090508060000160009054906101000a900473ffffffffffffffffffffffffffffffffffffffff1690806001018054610e839061222f565b80601f0160208091040260200160405190810160405280929190818152602001828054610eaf9061222f565b8015610efc5780601f10610ed157610100808354040283529160200191610efc565b820191906000526020600020905b815481529060010190602001808311610edf57829003601f168201915b505050505090806002018054610f119061222f565b80601f0160208091040260200160405190810160405280929190818152602001828054610f3d9061222f565b8015610f8a5780601f10610f5f57610100808354040283529160200191610f8a565b820191906000526020600020905b815481529060010190602001808311610f6d57829003601f168201915b5050505050908060030160009054906101000a900473ffffffffffffffffffffffffffffffffffffffff1690806004015490806005018054610fcb9061222f565b80601f0160208091040260200160405190810160405280929190818152602001828054610ff79061222f565b80156110445780601f1061101957610100808354040283529160200191611044565b820191906000526020600020905b81548152906001019060200180831161102757829003601f168201915b5050505050908060060180546110599061222f565b80601f01602080910402602001604051908101604052809291908181526020018280546110859061222f565b80156110d25780601f106110a7576101008083540402835291602001916110d2565b820191906000526020600020905b8154815290600101906020018083116110b557829003601f168201915b5050505050908060070154908060080160009054906101000a900460ff16905089565b6110fd611600565b600080838154811061111257611111612159565b5b9060005260206000209060090201604051806101200160405290816000820160009054906101000a900473ffffffffffffffffffffffffffffffffffffffff1673ffffffffffffffffffffffffffffffffffffffff1673ffffffffffffffffffffffffffffffffffffffff1681526020016001820180546111929061222f565b80601f01602080910402602001604051908101604052809291908181526020018280546111be9061222f565b801561120b5780601f106111e05761010080835404028352916020019161120b565b820191906000526020600020905b8154815290600101906020018083116111ee57829003601f168201915b505050505081526020016002820180546112249061222f565b80601f01602080910402602001604051908101604052809291908181526020018280546112509061222f565b801561129d5780601f106112725761010080835404028352916020019161129d565b820191906000526020600020905b81548152906001019060200180831161128057829003601f168201915b505050505081526020016003820160009054906101000a900473ffffffffffffffffffffffffffffffffffffffff1673ffffffffffffffffffffffffffffffffffffffff1673ffffffffffffffffffffffffffffffffffffffff168152602001600482015481526020016005820180546113169061222f565b80601f01602080910402602001604051908101604052809291908181526020018280546113429061222f565b801561138f5780601f106113645761010080835404028352916020019161138f565b820191906000526020600020905b81548152906001019060200180831161137257829003601f168201915b505050505081526020016006820180546113a89061222f565b80601f01602080910402602001604051908101604052809291908181526020018280546113d49061222f565b80156114215780601f106113f657610100808354040283529160200191611421565b820191906000526020600020905b81548152906001019060200180831161140457829003601f168201915b50505050508152602001600782015481526020016008820160009054906101000a900460ff161515151581525050905080915050919050565b600080611466846104ab565b9050600080828154811061147d5761147c612159565b5b90600052602060002090600902019050838160080160006101000a81548160ff021916908315150217905550505092915050565b600181815481106114c157600080fd5b906000526020600020016000915054906101000a900473ffffffffffffffffffffffffffffffffffffffff1681565b8280546114fc9061222f565b90600052602060002090601f01602090048101928261151e5760008555611565565b82601f1061153757805160ff1916838001178555611565565b82800160010185558215611565579182015b82811115611564578251825591602001919060010190611549565b5b509050611572919061167a565b5090565b8280548282559060005260206000209081019282156115ef579160200282015b828111156115ee5782518260006101000a81548173ffffffffffffffffffffffffffffffffffffffff021916908373ffffffffffffffffffffffffffffffffffffffff16021790555091602001919060010190611596565b5b5090506115fc919061167a565b5090565b604051806101200160405280600073ffffffffffffffffffffffffffffffffffffffff1681526020016060815260200160608152602001600073ffffffffffffffffffffffffffffffffffffffff168152602001600081526020016060815260200160608152602001600081526020016000151581525090565b5b8082111561169357600081600090555060010161167b565b5090565b6000604051905090565b600080fd5b600080fd5b600080fd5b6000601f19601f8301169050919050565b7f4e487b7100000000000000000000000000000000000000000000000000000000600052604160045260246000fd5b6116f9826116b0565b810181811067ffffffffffffffff82111715611718576117176116c1565b5b80604052505050565b600061172b611697565b905061173782826116f0565b919050565b600067ffffffffffffffff821115611757576117566116c1565b5b602082029050602081019050919050565b600080fd5b600073ffffffffffffffffffffffffffffffffffffffff82169050919050565b60006117988261176d565b9050919050565b6117a88161178d565b81146117b357600080fd5b50565b6000813590506117c58161179f565b92915050565b60006117de6117d98461173c565b611721565b9050808382526020820190506020840283018581111561180157611800611768565b5b835b8181101561182a578061181688826117b6565b845260208401935050602081019050611803565b5050509392505050565b600082601f830112611849576118486116ab565b5b81356118598482602086016117cb565b91505092915050565b600061186d8261178d565b9050919050565b61187d81611862565b811461188857600080fd5b50565b60008135905061189a81611874565b92915050565b600080fd5b600067ffffffffffffffff8211156118c0576118bf6116c1565b5b6118c9826116b0565b9050602081019050919050565b82818337600083830152505050565b60006118f86118f3846118a5565b611721565b905082815260208101848484011115611914576119136118a0565b5b61191f8482856118d6565b509392505050565b600082601f83011261193c5761193b6116ab565b5b813561194c8482602086016118e5565b91505092915050565b6000819050919050565b61196881611955565b811461197357600080fd5b50565b6000813590506119858161195f565b92915050565b600080600080600080600060e0888a0312156119aa576119a96116a1565b5b600088013567ffffffffffffffff8111156119c8576119c76116a6565b5b6119d48a828b01611834565b97505060206119e58a828b0161188b565b965050604088013567ffffffffffffffff811115611a0657611a056116a6565b5b611a128a828b01611927565b955050606088013567ffffffffffffffff811115611a3357611a326116a6565b5b611a3f8a828b01611927565b9450506080611a508a828b016117b6565b93505060a0611a618a828b01611976565b92505060c088013567ffffffffffffffff811115611a8257611a816116a6565b5b611a8e8a828b01611927565b91505092959891949750929550565b60008115159050919050565b611ab281611a9d565b82525050565b6000602082019050611acd6000830184611aa9565b92915050565b600060208284031215611ae957611ae86116a1565b5b6000611af78482850161188b565b91505092915050565b611b0981611955565b82525050565b6000602082019050611b246000830184611b00565b92915050565b600081519050919050565b600082825260208201905092915050565b6000819050602082019050919050565b6000819050919050565b6000611b7b611b76611b718461176d565b611b56565b61176d565b9050919050565b6000611b8d82611b60565b9050919050565b6000611b9f82611b82565b9050919050565b611baf81611b94565b82525050565b600081519050919050565b600082825260208201905092915050565b60005b83811015611bef578082015181840152602081019050611bd4565b83811115611bfe576000848401525b50505050565b6000611c0f82611bb5565b611c198185611bc0565b9350611c29818560208601611bd1565b611c32816116b0565b840191505092915050565b611c468161178d565b82525050565b611c5581611955565b82525050565b611c6481611a9d565b82525050565b600061012083016000830151611c836000860182611ba6565b5060208301518482036020860152611c9b8282611c04565b91505060408301518482036040860152611cb58282611c04565b9150506060830151611cca6060860182611c3d565b506080830151611cdd6080860182611c4c565b5060a083015184820360a0860152611cf58282611c04565b91505060c083015184820360c0860152611d0f8282611c04565b91505060e0830151611d2460e0860182611c4c565b50610100830151611d39610100860182611c5b565b508091505092915050565b6000611d508383611c6a565b905092915050565b6000602082019050919050565b6000611d7082611b2a565b611d7a8185611b35565b935083602082028501611d8c85611b46565b8060005b85811015611dc85784840389528151611da98582611d44565b9450611db483611d58565b925060208a01995050600181019050611d90565b50829750879550505050505092915050565b60006020820190508181036000830152611df48184611d65565b905092915050565b60008060408385031215611e1357611e126116a1565b5b6000611e218582860161188b565b9250506020611e32858286016117b6565b9150509250929050565b600061012083016000830151611e556000860182611ba6565b5060208301518482036020860152611e6d8282611c04565b91505060408301518482036040860152611e878282611c04565b9150506060830151611e9c6060860182611c3d565b506080830151611eaf6080860182611c4c565b5060a083015184820360a0860152611ec78282611c04565b91505060c083015184820360c0860152611ee18282611c04565b91505060e0830151611ef660e0860182611c4c565b50610100830151611f0b610100860182611c5b565b508091505092915050565b60006020820190508181036000830152611f308184611e3c565b905092915050565b60008060408385031215611f4f57611f4e6116a1565b5b6000611f5d8582860161188b565b925050602083013567ffffffffffffffff811115611f7e57611f7d6116a6565b5b611f8a85828601611927565b9150509250929050565b600060208284031215611faa57611fa96116a1565b5b6000611fb884828501611976565b91505092915050565b611fca81611b94565b82525050565b600082825260208201905092915050565b6000611fec82611bb5565b611ff68185611fd0565b9350612006818560208601611bd1565b61200f816116b0565b840191505092915050565b6120238161178d565b82525050565b60006101208201905061203f600083018c611fc1565b8181036020830152612051818b611fe1565b90508181036040830152612065818a611fe1565b9050612074606083018961201a565b6120816080830188611b00565b81810360a08301526120938187611fe1565b905081810360c08301526120a78186611fe1565b90506120b660e0830185611b00565b6120c4610100830184611aa9565b9a9950505050505050505050565b6120db81611a9d565b81146120e657600080fd5b50565b6000813590506120f8816120d2565b92915050565b60008060408385031215612115576121146116a1565b5b60006121238582860161188b565b9250506020612134858286016120e9565b9150509250929050565b6000602082019050612153600083018461201a565b92915050565b7f4e487b7100000000000000000000000000000000000000000000000000000000600052603260045260246000fd5b7f4e487b7100000000000000000000000000000000000000000000000000000000600052601160045260246000fd5b60006121c282611955565b91507fffffffffffffffffffffffffffffffffffffffffffffffffffffffffffffffff8214156121f5576121f4612188565b5b600182019050919050565b7f4e487b7100000000000000000000000000000000000000000000000000000000600052602260045260246000fd5b6000600282049050600182168061224757607f821691505b6020821081141561225b5761225a612200565b5b50919050565b7f41206e6577206f776e657220616464726573732073686f756c64206265206e6f60008201527f7420656d70747900000000000000000000000000000000000000000000000000602082015250565b60006122bd602783611fd0565b91506122c882612261565b604082019050919050565b600060208201905081810360008301526122ec816122b0565b905091905056fea2646970667358221220879b600f536a45a141359d1fd2c398f357bdd30f57309393d3351285f615633164736f6c63430008090033",
  "immutableReferences": {},
  "source": "// SPDX-License-Identifier: MIT\r\npragma solidity ^0.8.0;\r\npragma experimental ABIEncoderV2;\r\n\r\nimport { PhotoNFTDataStorages } from \"./photo-nft-data/commons/PhotoNFTDataStorages.sol\";\r\nimport { PhotoNFT } from \"./PhotoNFT.sol\";\r\n\r\n\r\n/**\r\n * @notice - This is the storage contract for photoNFTs\r\n */\r\ncontract PhotoNFTData is PhotoNFTDataStorages {\r\n\r\n    address[] public photoAddresses;\r\n\r\n    constructor() public {}\r\n\r\n    /**\r\n     * @notice - Save metadata of a photoNFT\r\n     */\r\n    function saveMetadataOfPhotoNFT(\r\n        address[] memory _photoAddresses, \r\n        PhotoNFT _photoNFT, \r\n        string memory _photoNFTName, \r\n        string memory _photoNFTSymbol, \r\n        address _ownerAddress, \r\n        uint _photoPrice, \r\n        string memory _ipfsHashOfPhoto\r\n    ) public returns (bool) {\r\n\r\n        Photo memory photo = Photo({ ///make a photo data\r\n            photoNFT: _photoNFT,\r\n            photoNFTName: _photoNFTName,\r\n            photoNFTSymbol: _photoNFTSymbol,\r\n            ownerAddress: _ownerAddress,\r\n            photoPrice: _photoPrice,\r\n            ipfsHashOfPhoto: _ipfsHashOfPhoto,\r\n            status: \"Open\",\r\n            reputation: 0, \r\n            premiumStatus : false\r\n        });\r\n        photos.push(photo);\r\n\r\n        /// Update photoAddresses\r\n        photoAddresses = _photoAddresses;     \r\n    }\r\n\r\n    /**\r\n     * @notice - Update owner address of a photoNFT by transferring ownership\r\n     */\r\n    function updateOwnerOfPhotoNFT(PhotoNFT _photoNFT, address _newOwner) public returns (bool) {\r\n        \r\n        uint photoIndex = getPhotoIndex(_photoNFT);  \r\n        Photo storage photo = photos[photoIndex];  \r\n        require (_newOwner != address(0), \"A new owner address should be not empty\");\r\n        photo.ownerAddress = _newOwner;  \r\n    }\r\n\r\n    /**\r\n     * @notice - Update status (\"Open\" or \"Cancelled\")\r\n     */\r\n    function updateStatus(PhotoNFT _photoNFT, string memory _newStatus) public returns (bool) {\r\n        \r\n        uint photoIndex = getPhotoIndex(_photoNFT); \r\n        Photo storage photo = photos[photoIndex]; \r\n        photo.status = _newStatus;  \r\n    }\r\n\r\n    /**\r\n     * @notice - Update status (\"Open\" or \"Cancelled\")\r\n     */\r\n    function updatePremiumStatus(PhotoNFT _photoNFT, bool _newStatus) public returns (bool) {\r\n        \r\n        uint photoIndex = getPhotoIndex(_photoNFT); // Identify photo's index\r\n        \r\n        Photo storage photo = photos[photoIndex]; // Update metadata of a photoNFT of photo\r\n        photo.premiumStatus = _newStatus;  \r\n    }\r\n    ///-----------------\r\n    /// Getter methods\r\n    ///-----------------\r\n    function getPhoto(uint index) public view returns (Photo memory _photo) {\r\n        Photo memory photo = photos[index];\r\n        return photo;\r\n    }\r\n\r\n    function getPhotoIndex(PhotoNFT photoNFT) public view returns (uint _photoIndex) {\r\n        address PHOTO_NFT = address(photoNFT);\r\n\r\n        \r\n        uint photoIndex; /// Identify member's index\r\n        for (uint i=0; i < photoAddresses.length; i++) {\r\n            if (photoAddresses[i] == PHOTO_NFT) {\r\n                photoIndex = i;\r\n            }\r\n        }\r\n\r\n        return photoIndex;   \r\n    }\r\n\r\n    function getPhotoByNFTAddress(PhotoNFT photoNFT) public view returns (Photo memory _photo) {\r\n        address PHOTO_NFT = address(photoNFT);\r\n\r\n        \r\n        uint photoIndex; /// Identify member's index\r\n        for (uint i=0; i < photoAddresses.length; i++) {\r\n            if (photoAddresses[i] == PHOTO_NFT) {\r\n                photoIndex = i;\r\n            }\r\n        }\r\n\r\n        Photo memory photo = photos[photoIndex];\r\n        return photo;\r\n    }\r\n\r\n    function getAllPhotos() public view returns (Photo[] memory _photos) {\r\n        return photos;\r\n    }\r\n\r\n}\r\n",
  "sourcePath": "C:\\testing\\NFT-marketplace\\contracts\\PhotoNFTData.sol",
  "compiler": {
    "name": "solc",
    "version": "0.8.9+commit.e5eed63a.Emscripten.clang"
  },
  "schemaVersion": "3.4.3",
  "updatedAt": "2021-10-16T13:22:06.173Z",
  "networkType": "ethereum",
  "devdoc": {
    "kind": "dev",
    "methods": {},
    "version": 1
  },
  "userdoc": {
    "kind": "user",
    "methods": {
      "getPhoto(uint256)": {
        "notice": "----------------- Getter methods -----------------"
      },
      "saveMetadataOfPhotoNFT(address[],address,string,string,address,uint256,string)": {
        "notice": "- Save metadata of a photoNFT"
      },
      "updateOwnerOfPhotoNFT(address,address)": {
        "notice": "- Update owner address of a photoNFT by transferring ownership"
      },
      "updatePremiumStatus(address,bool)": {
        "notice": "- Update status (\"Open\" or \"Cancelled\")"
      },
      "updateStatus(address,string)": {
        "notice": "- Update status (\"Open\" or \"Cancelled\")"
      }
    },
    "notice": "- This is the storage contract for photoNFTs",
    "version": 1
  }
}